{
  "contractName": "Products",
  "abi": [
    {
      "anonymous": false,
      "inputs": [
        {
          "indexed": true,
          "internalType": "address",
          "name": "bidder",
          "type": "address"
        },
        {
          "indexed": false,
          "internalType": "bytes32",
          "name": "productId",
          "type": "bytes32"
        },
        {
          "indexed": false,
          "internalType": "uint256",
          "name": "price",
          "type": "uint256"
        }
      ],
      "name": "BidPlacedEvent",
      "type": "event"
    },
    {
      "anonymous": false,
      "inputs": [
        {
          "indexed": true,
          "internalType": "address",
          "name": "seller",
          "type": "address"
        },
        {
          "indexed": false,
          "internalType": "bytes32",
          "name": "productId",
          "type": "bytes32"
        }
      ],
      "name": "ProductLaunchEvent",
      "type": "event"
    },
    {
      "anonymous": false,
      "inputs": [
        {
          "indexed": true,
          "internalType": "address",
          "name": "seller",
          "type": "address"
        },
        {
          "indexed": true,
          "internalType": "address",
          "name": "buyer",
          "type": "address"
        },
        {
          "indexed": false,
          "internalType": "uint256",
          "name": "price",
          "type": "uint256"
        },
        {
          "indexed": false,
          "internalType": "string",
          "name": "name",
          "type": "string"
        }
      ],
      "name": "ProductSoldEvent",
      "type": "event"
    },
    {
      "inputs": [
        {
          "internalType": "bytes32",
          "name": "productId",
          "type": "bytes32"
        },
        {
          "internalType": "uint256",
          "name": "price",
          "type": "uint256"
        }
      ],
      "name": "placeBid",
      "outputs": [],
      "stateMutability": "nonpayable",
      "type": "function"
    }
  ],
  "bytecode": "0x608060405234801561001057600080fd5b50610422806100206000396000f3fe608060405234801561001057600080fd5b506004361061002b5760003560e01c8063bca1aaa314610030575b600080fd5b6100666004803603604081101561004657600080fd5b810190808035906020019092919080359060200190929190505050610068565b005b8181600080600084815260200190815260200160002090508060090160009054906101000a900460ff16610104576040517f08c379a00000000000000000000000000000000000000000000000000000000081526004018080602001828103825260168152602001807f50726f6475637420646f6573206e6f742065786973740000000000000000000081525060200191505060405180910390fd5b8060040154421061017d576040517f08c379a00000000000000000000000000000000000000000000000000000000081526004018080602001828103825260148152602001807f41756374696f6e2074696d6520656c617073656400000000000000000000000081525060200191505060405180910390fd5b806006016001015482116101dc576040517f08c379a00000000000000000000000000000000000000000000000000000000081526004018080602001828103825260298152602001806103c46029913960400191505060405180910390fd5b8060030154821015610239576040517f08c379a000000000000000000000000000000000000000000000000000000000815260040180806020018281038252602981526020018061039b6029913960400191505060405180910390fd5b60008060008781526020019081526020016000209050610257610363565b60405180606001604052803373ffffffffffffffffffffffffffffffffffffffff168152602001878152602001428152509050808260060160008201518160000160006101000a81548173ffffffffffffffffffffffffffffffffffffffff021916908373ffffffffffffffffffffffffffffffffffffffff160217905550602082015181600101556040820151816002015590505060018260050160008282540192505081905550806000015173ffffffffffffffffffffffffffffffffffffffff167f11034bf5a8999be1961a6eb59ebc62f2b0ad67cfdc04a45e152332b99977e3918888604051808381526020018281526020019250505060405180910390a250505050505050565b6040518060600160405280600073ffffffffffffffffffffffffffffffffffffffff1681526020016000815260200160008152509056fe426964207072696365206d75737420626520686967686572207468616e206c6f77657220626f756e64426964207072696365206d75737420626520686967686572207468616e2063757272656e7420626964a26469706673582212204b695eb40ff41ffb7a7b363f63b5d576767b5957f2e7410e3be56d909cda9c5664736f6c63430007000033",
  "immutableReferences": {},
  "source": "// SPDX-License-Identifier: UNLICENSED\r\npragma solidity ^0.7.0;\r\n\r\nimport \"./Buyers.sol\";\r\nimport \"./Sellers.sol\";\r\n\r\ncontract Products is Buyers, Sellers { //TODO: import new holder contract (contains Seller and Buyer)\r\n\r\n    mapping(bytes32 => Product) activeProducts;\r\n    mapping(address => Product[]) private sellerToProduct;\r\n\r\n    modifier isValidBid(bytes32 productId, uint price) {\r\n        Product storage currentProduct = activeProducts[productId];\r\n        require(currentProduct.isReal, \"Product does not exist\");\r\n        require(block.timestamp < currentProduct.deadline, \"Auction time elapsed\");\r\n        require(price > currentProduct.highestBid.bidPrice, \"Bid price must be higher than current bid\");\r\n        require(price >= currentProduct.lowerBound, \"Bid price must be higher than lower bound\");\r\n        _;\r\n    }\r\n\r\n    function placeBid(bytes32 productId, uint price) public isValidBid(productId, price) {\r\n        Product storage currentProduct = activeProducts[productId];\r\n        \r\n        Bid memory newBid = Bid({\r\n            bidder: msg.sender,\r\n            bidPrice: price,\r\n            bidTime: block.timestamp\r\n        });\r\n\r\n        currentProduct.highestBid = newBid;\r\n        currentProduct.noOfBids += 1;\r\n\r\n        emit BidPlacedEvent(newBid.bidder, productId, price); \r\n    }\r\n    \r\n}\r\n",
  "sourcePath": "/mnt/c/Users/rsadi/FintechProject/backend/contracts/Products.sol",
  "compiler": {
    "name": "solc",
    "version": "0.7.0+commit.9e61f92b.Emscripten.clang"
  },
  "schemaVersion": "3.3.2",
  "updatedAt": "2020-12-16T10:05:00.635Z",
  "devdoc": {
    "kind": "dev",
    "methods": {},
    "version": 1
  },
  "userdoc": {
    "kind": "user",
    "methods": {},
    "version": 1
  }
}