{
  "contractName": "Products",
  "abi": [
    {
      "anonymous": false,
      "inputs": [
        {
          "indexed": true,
          "internalType": "address",
          "name": "bidder",
          "type": "address"
        },
        {
          "indexed": false,
          "internalType": "bytes32",
          "name": "productId",
          "type": "bytes32"
        }
      ],
      "name": "BidFailedEvent",
      "type": "event"
    },
    {
      "anonymous": false,
      "inputs": [
        {
          "indexed": true,
          "internalType": "address",
          "name": "bidder",
          "type": "address"
        },
        {
          "indexed": false,
          "internalType": "bytes32",
          "name": "productId",
          "type": "bytes32"
        },
        {
          "indexed": false,
          "internalType": "uint256",
          "name": "price",
          "type": "uint256"
        }
      ],
      "name": "BidPlacedEvent",
      "type": "event"
    },
    {
      "anonymous": false,
      "inputs": [
        {
          "indexed": true,
          "internalType": "address",
          "name": "seller",
          "type": "address"
        },
        {
          "indexed": true,
          "internalType": "bytes32",
          "name": "productId",
          "type": "bytes32"
        }
      ],
      "name": "ProductClosedEvent",
      "type": "event"
    },
    {
      "anonymous": false,
      "inputs": [
        {
          "indexed": true,
          "internalType": "address",
          "name": "seller",
          "type": "address"
        },
        {
          "indexed": true,
          "internalType": "bytes32",
          "name": "productId",
          "type": "bytes32"
        },
        {
          "indexed": false,
          "internalType": "string",
          "name": "name",
          "type": "string"
        },
        {
          "indexed": false,
          "internalType": "string",
          "name": "description",
          "type": "string"
        },
        {
          "indexed": false,
          "internalType": "uint256",
          "name": "deadline",
          "type": "uint256"
        }
      ],
      "name": "ProductLaunchEvent",
      "type": "event"
    },
    {
      "anonymous": false,
      "inputs": [
        {
          "indexed": true,
          "internalType": "address",
          "name": "seller",
          "type": "address"
        },
        {
          "indexed": true,
          "internalType": "address",
          "name": "buyer",
          "type": "address"
        },
        {
          "indexed": true,
          "internalType": "bytes32",
          "name": "productId",
          "type": "bytes32"
        },
        {
          "indexed": false,
          "internalType": "uint256",
          "name": "price",
          "type": "uint256"
        }
      ],
      "name": "ProductSoldEvent",
      "type": "event"
    },
    {
      "inputs": [
        {
          "internalType": "uint256",
          "name": "",
          "type": "uint256"
        }
      ],
      "name": "activeProductIds",
      "outputs": [
        {
          "internalType": "bytes32",
          "name": "",
          "type": "bytes32"
        }
      ],
      "stateMutability": "view",
      "type": "function",
      "constant": true
    },
    {
      "inputs": [
        {
          "internalType": "bytes32",
          "name": "",
          "type": "bytes32"
        }
      ],
      "name": "activeProducts",
      "outputs": [
        {
          "internalType": "bytes32",
          "name": "id",
          "type": "bytes32"
        },
        {
          "internalType": "string",
          "name": "name",
          "type": "string"
        },
        {
          "internalType": "string",
          "name": "description",
          "type": "string"
        },
        {
          "internalType": "uint256",
          "name": "lowerBound",
          "type": "uint256"
        },
        {
          "internalType": "uint256",
          "name": "deadline",
          "type": "uint256"
        },
        {
          "internalType": "uint256",
          "name": "noOfBids",
          "type": "uint256"
        },
        {
          "components": [
            {
              "internalType": "address",
              "name": "bidder",
              "type": "address"
            },
            {
              "internalType": "uint256",
              "name": "bidPrice",
              "type": "uint256"
            },
            {
              "internalType": "uint256",
              "name": "bidTime",
              "type": "uint256"
            }
          ],
          "internalType": "struct Structures.Bid",
          "name": "highestBid",
          "type": "tuple"
        },
        {
          "internalType": "bool",
          "name": "isReal",
          "type": "bool"
        },
        {
          "internalType": "address",
          "name": "seller",
          "type": "address"
        }
      ],
      "stateMutability": "view",
      "type": "function",
      "constant": true
    },
    {
      "inputs": [
        {
          "internalType": "string",
          "name": "name",
          "type": "string"
        },
        {
          "internalType": "string",
          "name": "description",
          "type": "string"
        },
        {
          "internalType": "uint256",
          "name": "lowerBound",
          "type": "uint256"
        },
        {
          "internalType": "uint256",
          "name": "deadline",
          "type": "uint256"
        }
      ],
      "name": "addProduct",
      "outputs": [],
      "stateMutability": "nonpayable",
      "type": "function"
    },
    {
      "inputs": [
        {
          "internalType": "bytes32",
          "name": "productId",
          "type": "bytes32"
        }
      ],
      "name": "getProductDetailsById",
      "outputs": [
        {
          "components": [
            {
              "internalType": "bytes32",
              "name": "id",
              "type": "bytes32"
            },
            {
              "internalType": "string",
              "name": "name",
              "type": "string"
            },
            {
              "internalType": "string",
              "name": "description",
              "type": "string"
            },
            {
              "internalType": "uint256",
              "name": "lowerBound",
              "type": "uint256"
            },
            {
              "internalType": "uint256",
              "name": "deadline",
              "type": "uint256"
            },
            {
              "internalType": "uint256",
              "name": "noOfBids",
              "type": "uint256"
            },
            {
              "components": [
                {
                  "internalType": "address",
                  "name": "bidder",
                  "type": "address"
                },
                {
                  "internalType": "uint256",
                  "name": "bidPrice",
                  "type": "uint256"
                },
                {
                  "internalType": "uint256",
                  "name": "bidTime",
                  "type": "uint256"
                }
              ],
              "internalType": "struct Structures.Bid",
              "name": "highestBid",
              "type": "tuple"
            },
            {
              "internalType": "bool",
              "name": "isReal",
              "type": "bool"
            },
            {
              "internalType": "address",
              "name": "seller",
              "type": "address"
            }
          ],
          "internalType": "struct Structures.Product",
          "name": "",
          "type": "tuple"
        }
      ],
      "stateMutability": "view",
      "type": "function",
      "constant": true
    },
    {
      "inputs": [],
      "name": "getProductIds",
      "outputs": [
        {
          "internalType": "bytes32[]",
          "name": "",
          "type": "bytes32[]"
        }
      ],
      "stateMutability": "view",
      "type": "function",
      "constant": true
    },
    {
      "inputs": [
        {
          "internalType": "bytes32",
          "name": "productId",
          "type": "bytes32"
        }
      ],
      "name": "placeBid",
      "outputs": [],
      "stateMutability": "payable",
      "type": "function",
      "payable": true
    },
    {
      "inputs": [],
      "name": "getMyProducts",
      "outputs": [
        {
          "components": [
            {
              "internalType": "bytes32",
              "name": "id",
              "type": "bytes32"
            },
            {
              "internalType": "string",
              "name": "name",
              "type": "string"
            },
            {
              "internalType": "string",
              "name": "description",
              "type": "string"
            },
            {
              "internalType": "uint256",
              "name": "lowerBound",
              "type": "uint256"
            },
            {
              "internalType": "uint256",
              "name": "deadline",
              "type": "uint256"
            },
            {
              "internalType": "uint256",
              "name": "noOfBids",
              "type": "uint256"
            },
            {
              "components": [
                {
                  "internalType": "address",
                  "name": "bidder",
                  "type": "address"
                },
                {
                  "internalType": "uint256",
                  "name": "bidPrice",
                  "type": "uint256"
                },
                {
                  "internalType": "uint256",
                  "name": "bidTime",
                  "type": "uint256"
                }
              ],
              "internalType": "struct Structures.Bid",
              "name": "highestBid",
              "type": "tuple"
            },
            {
              "internalType": "bool",
              "name": "isReal",
              "type": "bool"
            },
            {
              "internalType": "address",
              "name": "seller",
              "type": "address"
            }
          ],
          "internalType": "struct Structures.Product[]",
          "name": "",
          "type": "tuple[]"
        }
      ],
      "stateMutability": "view",
      "type": "function",
      "constant": true
    },
    {
      "inputs": [
        {
          "internalType": "bytes32",
          "name": "productId",
          "type": "bytes32"
        }
      ],
      "name": "getHighestBid",
      "outputs": [
        {
          "components": [
            {
              "internalType": "address",
              "name": "bidder",
              "type": "address"
            },
            {
              "internalType": "uint256",
              "name": "bidPrice",
              "type": "uint256"
            },
            {
              "internalType": "uint256",
              "name": "bidTime",
              "type": "uint256"
            }
          ],
          "internalType": "struct Structures.Bid",
          "name": "",
          "type": "tuple"
        }
      ],
      "stateMutability": "view",
      "type": "function",
      "constant": true
    },
    {
      "inputs": [
        {
          "internalType": "bytes32",
          "name": "productId",
          "type": "bytes32"
        }
      ],
      "name": "closeAuction",
      "outputs": [],
      "stateMutability": "payable",
      "type": "function",
      "payable": true
    },
    {
      "inputs": [
        {
          "internalType": "bytes32",
          "name": "productId",
          "type": "bytes32"
        }
      ],
      "name": "sellAuction",
      "outputs": [],
      "stateMutability": "payable",
      "type": "function",
      "payable": true
    }
  ],
  "bytecode": "0x608060405234801561001057600080fd5b50612f99806100206000396000f3fe6080604052600436106100915760003560e01c8063497ecfc511610059578063497ecfc5146101885780634bdafacf146101a4578063e1bc0929146101c0578063fbf3c5d8146101fd578063fdca4ca31461023a57610091565b806301cecd14146100965780630db6d4ac146100bf578063128e06c4146100db578063201bbdbe1461012057806347428e7b1461015d575b600080fd5b3480156100a257600080fd5b506100bd60048036038101906100b8919061223e565b610265565b005b6100d960048036038101906100d49190612215565b6106ff565b005b3480156100e757600080fd5b5061010260048036038101906100fd9190612215565b6109c9565b60405161011799989796959493929190612b01565b60405180910390f35b34801561012c57600080fd5b5061014760048036038101906101429190612215565b610be8565b6040516101549190612d2b565b60405180910390f35b34801561016957600080fd5b50610172610c81565b60405161017f9190612aa2565b60405180910390f35b6101a2600480360381019061019d9190612215565b610cd9565b005b6101be60048036038101906101b99190612215565b6110be565b005b3480156101cc57600080fd5b506101e760048036038101906101e29190612215565b611358565b6040516101f49190612d46565b60405180910390f35b34801561020957600080fd5b50610224600480360381019061021f91906122d1565b61164e565b6040516102319190612ae6565b60405180910390f35b34801561024657600080fd5b5061024f61166f565b60405161025c9190612ac4565b60405180910390f35b600084848360405160200161027c93929190612a6d565b60405160208183030381529060405280519060200120905060008082815260200190815260200160002060090160009054906101000a900460ff16156102f7576040517f08c379a00000000000000000000000000000000000000000000000000000000081526004016102ee90612c4b565b60405180910390fd5b6102ff611f87565b6040518060600160405280600073ffffffffffffffffffffffffffffffffffffffff168152602001600081526020016000815250905061033d611fbe565b604051806101200160405280848152602001888152602001878152602001868152602001858152602001600081526020018381526020016001151581526020013373ffffffffffffffffffffffffffffffffffffffff168152509050806000808581526020019081526020016000206000820151816000015560208201518160010190805190602001906103d292919061202b565b5060408201518160020190805190602001906103ef92919061202b565b50606082015181600301556080820151816004015560a0820151816005015560c08201518160060160008201518160000160006101000a81548173ffffffffffffffffffffffffffffffffffffffff021916908373ffffffffffffffffffffffffffffffffffffffff1602179055506020820151816001015560408201518160020155505060e08201518160090160006101000a81548160ff0219169083151502179055506101008201518160090160016101000a81548173ffffffffffffffffffffffffffffffffffffffff021916908373ffffffffffffffffffffffffffffffffffffffff160217905550905050600260003373ffffffffffffffffffffffffffffffffffffffff1673ffffffffffffffffffffffffffffffffffffffff1681526020019081526020016000208190806001815401808255809150506001900390600052602060002090600a020160009091909190915060008201518160000155602082015181600101908051906020019061056e92919061202b565b50604082015181600201908051906020019061058b92919061202b565b50606082015181600301556080820151816004015560a0820151816005015560c08201518160060160008201518160000160006101000a81548173ffffffffffffffffffffffffffffffffffffffff021916908373ffffffffffffffffffffffffffffffffffffffff1602179055506020820151816001015560408201518160020155505060e08201518160090160006101000a81548160ff0219169083151502179055506101008201518160090160016101000a81548173ffffffffffffffffffffffffffffffffffffffff021916908373ffffffffffffffffffffffffffffffffffffffff16021790555050506001839080600181540180825580915050600190039060005260206000200160009091909190915055823373ffffffffffffffffffffffffffffffffffffffff167fdab444678e60fd65893843d8dea3989528152900f267cedb7a2d9692fec2e7458989886040516106ee93929190612bc6565b60405180910390a350505050505050565b6000600260003373ffffffffffffffffffffffffffffffffffffffff1673ffffffffffffffffffffffffffffffffffffffff168152602001908152602001600020805490501161074e57600080fd5b600080600083815260200190815260200160002090508060040154421061077457600080fd5b8060090160019054906101000a900473ffffffffffffffffffffffffffffffffffffffff1673ffffffffffffffffffffffffffffffffffffffff163373ffffffffffffffffffffffffffffffffffffffff1614610806576040517f08c379a00000000000000000000000000000000000000000000000000000000081526004016107fd90612c6b565b60405180910390fd5b600073ffffffffffffffffffffffffffffffffffffffff168160060160000160009054906101000a900473ffffffffffffffffffffffffffffffffffffffff1673ffffffffffffffffffffffffffffffffffffffff16141561089d576040517f08c379a000000000000000000000000000000000000000000000000000000000815260040161089490612cab565b60405180910390fd5b60008060008481526020019081526020016000206006016001015490503373ffffffffffffffffffffffffffffffffffffffff166108fc829081150290604051600060405180830381858888f19350505050158015610900573d6000803e3d6000fd5b50600080600085815260200190815260200160002060060160000160009054906101000a900473ffffffffffffffffffffffffffffffffffffffff1673ffffffffffffffffffffffffffffffffffffffff16905061095d846119bc565b838173ffffffffffffffffffffffffffffffffffffffff163373ffffffffffffffffffffffffffffffffffffffff167f04ee67cd9a6ae329561b8ceedb47bdde00a44d6ea0fb431e53af3cdf1082137a856040516109bb9190612d68565b60405180910390a450505050565b6000602052806000526040600020600091509050806000015490806001018054600181600116156101000203166002900480601f016020809104026020016040519081016040528092919081815260200182805460018160011615610100020316600290048015610a7b5780601f10610a5057610100808354040283529160200191610a7b565b820191906000526020600020905b815481529060010190602001808311610a5e57829003601f168201915b505050505090806002018054600181600116156101000203166002900480601f016020809104026020016040519081016040528092919081815260200182805460018160011615610100020316600290048015610b195780601f10610aee57610100808354040283529160200191610b19565b820191906000526020600020905b815481529060010190602001808311610afc57829003601f168201915b505050505090806003015490806004015490806005015490806006016040518060600160405290816000820160009054906101000a900473ffffffffffffffffffffffffffffffffffffffff1673ffffffffffffffffffffffffffffffffffffffff1673ffffffffffffffffffffffffffffffffffffffff16815260200160018201548152602001600282015481525050908060090160009054906101000a900460ff16908060090160019054906101000a900473ffffffffffffffffffffffffffffffffffffffff16905089565b610bf0611f87565b6000808381526020019081526020016000206006016040518060600160405290816000820160009054906101000a900473ffffffffffffffffffffffffffffffffffffffff1673ffffffffffffffffffffffffffffffffffffffff1673ffffffffffffffffffffffffffffffffffffffff168152602001600182015481526020016002820154815250509050919050565b60606001805480602002602001604051908101604052809291908181526020018280548015610ccf57602002820191906000526020600020905b815481526020019060010190808311610cbb575b5050505050905090565b80600080600083815260200190815260200160002090508060090160009054906101000a900460ff16610d41576040517f08c379a0000000000000000000000000000000000000000000000000000000008152600401610d3890612c0b565b60405180910390fd5b80600401544210610d87576040517f08c379a0000000000000000000000000000000000000000000000000000000008152600401610d7e90612d0b565b60405180910390fd5b80600601600101543411610dd0576040517f08c379a0000000000000000000000000000000000000000000000000000000008152600401610dc790612ccb565b60405180910390fd5b8060030154341015610e17576040517f08c379a0000000000000000000000000000000000000000000000000000000008152600401610e0e90612c8b565b60405180910390fd5b8060090160019054906101000a900473ffffffffffffffffffffffffffffffffffffffff1673ffffffffffffffffffffffffffffffffffffffff163373ffffffffffffffffffffffffffffffffffffffff161415610eaa576040517f08c379a0000000000000000000000000000000000000000000000000000000008152600401610ea190612c2b565b60405180910390fd5b60008060008581526020019081526020016000209050610ec8611f87565b60405180606001604052803373ffffffffffffffffffffffffffffffffffffffff1681526020013481526020014281525090506001826005015410610fed5760008260060160000160009054906101000a900473ffffffffffffffffffffffffffffffffffffffff1673ffffffffffffffffffffffffffffffffffffffff1690506000836006016001015490508173ffffffffffffffffffffffffffffffffffffffff166108fc829081150290604051600060405180830381858888f19350505050158015610f9b573d6000803e3d6000fd5b508173ffffffffffffffffffffffffffffffffffffffff167f4d6bca05efc4f82cbc52df5a45dbc024f8da3c842184303fffd632c996de144a88604051610fe29190612ae6565b60405180910390a250505b808260060160008201518160000160006101000a81548173ffffffffffffffffffffffffffffffffffffffff021916908373ffffffffffffffffffffffffffffffffffffffff160217905550602082015181600101556040820151816002015590505060018260050160008282540192505081905550806000015173ffffffffffffffffffffffffffffffffffffffff167f11034bf5a8999be1961a6eb59ebc62f2b0ad67cfdc04a45e152332b99977e39186346040516110af929190612b9d565b60405180910390a25050505050565b6000600260003373ffffffffffffffffffffffffffffffffffffffff1673ffffffffffffffffffffffffffffffffffffffff168152602001908152602001600020805490501161110d57600080fd5b60008060008381526020019081526020016000209050806004015442101561113457600080fd5b8060090160019054906101000a900473ffffffffffffffffffffffffffffffffffffffff1673ffffffffffffffffffffffffffffffffffffffff163373ffffffffffffffffffffffffffffffffffffffff16146111c6576040517f08c379a00000000000000000000000000000000000000000000000000000000081526004016111bd90612ceb565b60405180910390fd5b600073ffffffffffffffffffffffffffffffffffffffff168160060160000160009054906101000a900473ffffffffffffffffffffffffffffffffffffffff1673ffffffffffffffffffffffffffffffffffffffff16146113075760008160060160010154905060008260060160000160009054906101000a900473ffffffffffffffffffffffffffffffffffffffff1673ffffffffffffffffffffffffffffffffffffffff1690508073ffffffffffffffffffffffffffffffffffffffff166108fc839081150290604051600060405180830381858888f193505050501580156112b5573d6000803e3d6000fd5b508073ffffffffffffffffffffffffffffffffffffffff167f4d6bca05efc4f82cbc52df5a45dbc024f8da3c842184303fffd632c996de144a856040516112fc9190612ae6565b60405180910390a250505b611310826119bc565b813373ffffffffffffffffffffffffffffffffffffffff167f3669e75c00e17b558f06bad1d55afaea2ca57875a9637560540ea8af5a4d67ba60405160405180910390a35050565b611360611fbe565b60008083815260200190815260200160002060090160009054906101000a900460ff166113c2576040517f08c379a00000000000000000000000000000000000000000000000000000000081526004016113b990612c0b565b60405180910390fd5b6113ca611fbe565b6000808481526020019081526020016000206040518061012001604052908160008201548152602001600182018054600181600116156101000203166002900480601f01602080910402602001604051908101604052809291908181526020018280546001816001161561010002031660029004801561148b5780601f106114605761010080835404028352916020019161148b565b820191906000526020600020905b81548152906001019060200180831161146e57829003601f168201915b50505050508152602001600282018054600181600116156101000203166002900480601f01602080910402602001604051908101604052809291908181526020018280546001816001161561010002031660029004801561152d5780601f106115025761010080835404028352916020019161152d565b820191906000526020600020905b81548152906001019060200180831161151057829003601f168201915b50505050508152602001600382015481526020016004820154815260200160058201548152602001600682016040518060600160405290816000820160009054906101000a900473ffffffffffffffffffffffffffffffffffffffff1673ffffffffffffffffffffffffffffffffffffffff1673ffffffffffffffffffffffffffffffffffffffff1681526020016001820154815260200160028201548152505081526020016009820160009054906101000a900460ff161515151581526020016009820160019054906101000a900473ffffffffffffffffffffffffffffffffffffffff1673ffffffffffffffffffffffffffffffffffffffff1673ffffffffffffffffffffffffffffffffffffffff1681525050905080915050919050565b6001818154811061165b57fe5b906000526020600020016000915090505481565b60606000600260003373ffffffffffffffffffffffffffffffffffffffff1673ffffffffffffffffffffffffffffffffffffffff16815260200190815260200160002080549050116116c057600080fd5b6060600260003373ffffffffffffffffffffffffffffffffffffffff1673ffffffffffffffffffffffffffffffffffffffff168152602001908152602001600020805480602002602001604051908101604052809291908181526020016000905b828210156119af57838290600052602060002090600a02016040518061012001604052908160008201548152602001600182018054600181600116156101000203166002900480601f0160208091040260200160405190810160405280929190818152602001828054600181600116156101000203166002900480156117e85780601f106117bd576101008083540402835291602001916117e8565b820191906000526020600020905b8154815290600101906020018083116117cb57829003601f168201915b50505050508152602001600282018054600181600116156101000203166002900480601f01602080910402602001604051908101604052809291908181526020018280546001816001161561010002031660029004801561188a5780601f1061185f5761010080835404028352916020019161188a565b820191906000526020600020905b81548152906001019060200180831161186d57829003601f168201915b50505050508152602001600382015481526020016004820154815260200160058201548152602001600682016040518060600160405290816000820160009054906101000a900473ffffffffffffffffffffffffffffffffffffffff1673ffffffffffffffffffffffffffffffffffffffff1673ffffffffffffffffffffffffffffffffffffffff1681526020016001820154815260200160028201548152505081526020016009820160009054906101000a900460ff161515151581526020016009820160019054906101000a900473ffffffffffffffffffffffffffffffffffffffff1673ffffffffffffffffffffffffffffffffffffffff1673ffffffffffffffffffffffffffffffffffffffff168152505081526020019060010190611721565b5050505090508091505090565b6000808281526020019081526020016000206000808201600090556001820160006119e791906120ab565b6002820160006119f791906120ab565b60038201600090556004820160009055600582016000905560068201600080820160006101000a81549073ffffffffffffffffffffffffffffffffffffffff02191690556001820160009055600282016000905550506009820160006101000a81549060ff02191690556009820160016101000a81549073ffffffffffffffffffffffffffffffffffffffff0219169055505060005b600180549050811015611b21578160018281548110611aa857fe5b90600052602060002001541415611b145760018080805490500381548110611acc57fe5b906000526020600020015460018281548110611ae457fe5b90600052602060002001819055506001805480611afd57fe5b600190038181906000526020600020016000905590555b8080600101915050611a8d565b5060005b600260003373ffffffffffffffffffffffffffffffffffffffff1673ffffffffffffffffffffffffffffffffffffffff16815260200190815260200160002080549050811015611f835781600260003373ffffffffffffffffffffffffffffffffffffffff1673ffffffffffffffffffffffffffffffffffffffff1681526020019081526020016000208281548110611bba57fe5b90600052602060002090600a0201600001541415611f7657600260003373ffffffffffffffffffffffffffffffffffffffff1673ffffffffffffffffffffffffffffffffffffffff1681526020019081526020016000206001600260003373ffffffffffffffffffffffffffffffffffffffff1673ffffffffffffffffffffffffffffffffffffffff168152602001908152602001600020805490500381548110611c6157fe5b90600052602060002090600a0201600260003373ffffffffffffffffffffffffffffffffffffffff1673ffffffffffffffffffffffffffffffffffffffff1681526020019081526020016000208281548110611cb957fe5b90600052602060002090600a02016000820154816000015560018201816001019080546001816001161561010002031660029004611cf89291906120f3565b5060028201816002019080546001816001161561010002031660029004611d209291906120f3565b5060038201548160030155600482015481600401556005820154816005015560068201816006016000820160009054906101000a900473ffffffffffffffffffffffffffffffffffffffff168160000160006101000a81548173ffffffffffffffffffffffffffffffffffffffff021916908373ffffffffffffffffffffffffffffffffffffffff160217905550600182015481600101556002820154816002015550506009820160009054906101000a900460ff168160090160006101000a81548160ff0219169083151502179055506009820160019054906101000a900473ffffffffffffffffffffffffffffffffffffffff168160090160016101000a81548173ffffffffffffffffffffffffffffffffffffffff021916908373ffffffffffffffffffffffffffffffffffffffff160217905550905050600260003373ffffffffffffffffffffffffffffffffffffffff1673ffffffffffffffffffffffffffffffffffffffff168152602001908152602001600020805480611ea357fe5b60019003818190600052602060002090600a0201600080820160009055600182016000611ed091906120ab565b600282016000611ee091906120ab565b60038201600090556004820160009055600582016000905560068201600080820160006101000a81549073ffffffffffffffffffffffffffffffffffffffff02191690556001820160009055600282016000905550506009820160006101000a81549060ff02191690556009820160016101000a81549073ffffffffffffffffffffffffffffffffffffffff0219169055505090555b8080600101915050611b25565b5050565b6040518060600160405280600073ffffffffffffffffffffffffffffffffffffffff16815260200160008152602001600081525090565b604051806101200160405280600080191681526020016060815260200160608152602001600081526020016000815260200160008152602001611fff611f87565b8152602001600015158152602001600073ffffffffffffffffffffffffffffffffffffffff1681525090565b828054600181600116156101000203166002900490600052602060002090601f016020900481019282601f1061206c57805160ff191683800117855561209a565b8280016001018555821561209a579182015b8281111561209957825182559160200191906001019061207e565b5b5090506120a7919061217a565b5090565b50805460018160011615610100020316600290046000825580601f106120d157506120f0565b601f0160209004906000526020600020908101906120ef919061217a565b5b50565b828054600181600116156101000203166002900490600052602060002090601f016020900481019282601f1061212c5780548555612169565b8280016001018555821561216957600052602060002091601f016020900482015b8281111561216857825482559160010191906001019061214d565b5b509050612176919061217a565b5090565b5b8082111561219357600081600090555060010161217b565b5090565b6000813590506121a681612f35565b92915050565b600082601f8301126121bd57600080fd5b81356121d06121cb82612db0565b612d83565b915080825260208301602083018583830111156121ec57600080fd5b6121f7838284612ed8565b50505092915050565b60008135905061220f81612f4c565b92915050565b60006020828403121561222757600080fd5b600061223584828501612197565b91505092915050565b6000806000806080858703121561225457600080fd5b600085013567ffffffffffffffff81111561226e57600080fd5b61227a878288016121ac565b945050602085013567ffffffffffffffff81111561229757600080fd5b6122a3878288016121ac565b93505060406122b487828801612200565b92505060606122c587828801612200565b91505092959194509250565b6000602082840312156122e357600080fd5b60006122f184828501612200565b91505092915050565b60006123068383612435565b60208301905092915050565b600061231e838361289e565b905092915050565b61232f81612e86565b82525050565b61233e81612e86565b82525050565b600061234f82612dfc565b6123598185612e37565b935061236483612ddc565b8060005b8381101561239557815161237c88826122fa565b975061238783612e1d565b925050600181019050612368565b5085935050505092915050565b60006123ad82612e07565b6123b78185612e48565b9350836020820285016123c985612dec565b8060005b8581101561240557848403895281516123e68582612312565b94506123f183612e2a565b925060208a019950506001810190506123cd565b50829750879550505050505092915050565b61242081612e98565b82525050565b61242f81612e98565b82525050565b61243e81612ea4565b82525050565b61244d81612ea4565b82525050565b600061245e82612e12565b6124688185612e59565b9350612478818560208601612ee7565b61248181612f24565b840191505092915050565b600061249782612e12565b6124a18185612e6a565b93506124b1818560208601612ee7565b6124ba81612f24565b840191505092915050565b60006124d082612e12565b6124da8185612e7b565b93506124ea818560208601612ee7565b80840191505092915050565b6000612503601683612e6a565b91507f50726f6475637420646f6573206e6f74206578697374000000000000000000006000830152602082019050919050565b6000612543602283612e6a565b91507f596f7520617265206e6f7420616c6c6f77656420746f20706c6163652061206260008301527f69640000000000000000000000000000000000000000000000000000000000006020830152604082019050919050565b60006125a9601683612e6a565b91507f50726f6475637420616c726561647920657869737473000000000000000000006000830152602082019050919050565b60006125e9602683612e6a565b91507f596f752063616e6e6f74206465636c617265207468652061756374696f6e206160008301527f7320736f6c6400000000000000000000000000000000000000000000000000006020830152604082019050919050565b600061264f602983612e6a565b91507f426964207072696365206d75737420626520686967686572207468616e206c6f60008301527f77657220626f756e6400000000000000000000000000000000000000000000006020830152604082019050919050565b60006126b5602683612e6a565b91507f596f752063616e6e6f742073656c6c20612070726f647563742077697468206e60008301527f6f206269647300000000000000000000000000000000000000000000000000006020830152604082019050919050565b600061271b602983612e6a565b91507f426964207072696365206d75737420626520686967686572207468616e20637560008301527f7272656e742062696400000000000000000000000000000000000000000000006020830152604082019050919050565b6000612781602783612e6a565b91507f596f752063616e2774206465636c617265207468652061756374696f6e20617360008301527f20636c6f736564000000000000000000000000000000000000000000000000006020830152604082019050919050565b60006127e7601483612e6a565b91507f41756374696f6e2074696d6520656c61707365640000000000000000000000006000830152602082019050919050565b6060820160008201516128306000850182612326565b5060208201516128436020850182612a38565b5060408201516128566040850182612a38565b50505050565b6060820160008201516128726000850182612326565b5060208201516128856020850182612a38565b5060408201516128986040850182612a38565b50505050565b6000610160830160008301516128b76000860182612435565b50602083015184820360208601526128cf8282612453565b915050604083015184820360408601526128e98282612453565b91505060608301516128fe6060860182612a38565b5060808301516129116080860182612a38565b5060a083015161292460a0860182612a38565b5060c083015161293760c086018261281a565b5060e083015161294b610120860182612417565b50610100830151612960610140860182612326565b508091505092915050565b6000610160830160008301516129846000860182612435565b506020830151848203602086015261299c8282612453565b915050604083015184820360408601526129b68282612453565b91505060608301516129cb6060860182612a38565b5060808301516129de6080860182612a38565b5060a08301516129f160a0860182612a38565b5060c0830151612a0460c086018261281a565b5060e0830151612a18610120860182612417565b50610100830151612a2d610140860182612326565b508091505092915050565b612a4181612ece565b82525050565b612a5081612ece565b82525050565b612a67612a6282612ece565b612f1a565b82525050565b6000612a7982866124c5565b9150612a8582856124c5565b9150612a918284612a56565b602082019150819050949350505050565b60006020820190508181036000830152612abc8184612344565b905092915050565b60006020820190508181036000830152612ade81846123a2565b905092915050565b6000602082019050612afb6000830184612444565b92915050565b600061016082019050612b17600083018c612444565b8181036020830152612b29818b61248c565b90508181036040830152612b3d818a61248c565b9050612b4c6060830189612a47565b612b596080830188612a47565b612b6660a0830187612a47565b612b7360c083018661285c565b612b81610120830185612426565b612b8f610140830184612335565b9a9950505050505050505050565b6000604082019050612bb26000830185612444565b612bbf6020830184612a47565b9392505050565b60006060820190508181036000830152612be0818661248c565b90508181036020830152612bf4818561248c565b9050612c036040830184612a47565b949350505050565b60006020820190508181036000830152612c24816124f6565b9050919050565b60006020820190508181036000830152612c4481612536565b9050919050565b60006020820190508181036000830152612c648161259c565b9050919050565b60006020820190508181036000830152612c84816125dc565b9050919050565b60006020820190508181036000830152612ca481612642565b9050919050565b60006020820190508181036000830152612cc4816126a8565b9050919050565b60006020820190508181036000830152612ce48161270e565b9050919050565b60006020820190508181036000830152612d0481612774565b9050919050565b60006020820190508181036000830152612d24816127da565b9050919050565b6000606082019050612d40600083018461285c565b92915050565b60006020820190508181036000830152612d60818461296b565b905092915050565b6000602082019050612d7d6000830184612a47565b92915050565b6000604051905081810181811067ffffffffffffffff82111715612da657600080fd5b8060405250919050565b600067ffffffffffffffff821115612dc757600080fd5b601f19601f8301169050602081019050919050565b6000819050602082019050919050565b6000819050602082019050919050565b600081519050919050565b600081519050919050565b600081519050919050565b6000602082019050919050565b6000602082019050919050565b600082825260208201905092915050565b600082825260208201905092915050565b600082825260208201905092915050565b600082825260208201905092915050565b600081905092915050565b6000612e9182612eae565b9050919050565b60008115159050919050565b6000819050919050565b600073ffffffffffffffffffffffffffffffffffffffff82169050919050565b6000819050919050565b82818337600083830152505050565b60005b83811015612f05578082015181840152602081019050612eea565b83811115612f14576000848401525b50505050565b6000819050919050565b6000601f19601f8301169050919050565b612f3e81612ea4565b8114612f4957600080fd5b50565b612f5581612ece565b8114612f6057600080fd5b5056fea264697066735822122031d25cca8c3623ae9b1b930ecc73e86f65fe8af98c79a95554d79634cda020f564736f6c63430007000033",
  "immutableReferences": {},
  "source": "// SPDX-License-Identifier: UNLICENSED\r\npragma solidity ^0.7.0;\r\npragma experimental ABIEncoderV2;\r\nimport \"./Buyers.sol\";\r\nimport \"./Sellers.sol\";\r\n\r\ncontract Products is Buyers, Sellers {\r\n\r\n    mapping(bytes32 => Product) public activeProducts;\r\n    bytes32[] public activeProductIds;\r\n    mapping(address => Product[]) private sellerToProduct;\r\n\r\n    //did not put message\r\n    modifier onlySellers() \r\n    {\r\n        require(sellerToProduct[msg.sender].length > 0);\r\n        _;\r\n    }\r\n\r\n    modifier isValidBid(bytes32 productId) \r\n    {\r\n        Product storage currentProduct = activeProducts[productId];\r\n        require(currentProduct.isReal, \"Product does not exist\");\r\n        require(block.timestamp < currentProduct.deadline, \"Auction time elapsed\");\r\n        require(msg.value > currentProduct.highestBid.bidPrice, \"Bid price must be higher than current bid\");\r\n        require(msg.value >= currentProduct.lowerBound, \"Bid price must be higher than lower bound\");\r\n        require(msg.sender != currentProduct.seller, \"You are not allowed to place a bid\");\r\n        _;\r\n    }\r\n\r\n    function addProduct(string memory name, string memory description, uint lowerBound, uint deadline) public \r\n    {\r\n        bytes32 productId = keccak256(abi.encodePacked(name, description, deadline));\r\n        require(!activeProducts[productId].isReal, \"Product already exists\");\r\n        Bid memory emptyBid = Bid(address(0), 0, 0);\r\n        Product memory product = Product(productId, name, description, lowerBound, deadline, 0, emptyBid, true, msg.sender);\r\n        activeProducts[productId] = product;\r\n        sellerToProduct[msg.sender].push(product);\r\n        activeProductIds.push(productId);\r\n\r\n        emit ProductLaunchEvent(msg.sender, productId, name, description, deadline);\r\n    }\r\n\r\n    function getProductDetailsById(bytes32 productId) public view returns (Product memory)\r\n    {\r\n        require(activeProducts[productId].isReal, \"Product does not exist\");\r\n        Product memory product = activeProducts[productId];\r\n        return product;\r\n    }\r\n\r\n    function getProductIds() public view returns (bytes32[] memory) {\r\n        return activeProductIds;\r\n    }\r\n\r\n    function placeBid(bytes32 productId) public payable isValidBid(productId) \r\n    {\r\n        Product storage currentProduct = activeProducts[productId];\r\n        \r\n        Bid memory newBid = Bid({\r\n            bidder: msg.sender,\r\n            bidPrice: msg.value,\r\n            bidTime: block.timestamp\r\n        });\r\n\r\n        if (currentProduct.noOfBids >= 1) {\r\n            address payable previousBidder = address(uint(currentProduct.highestBid.bidder));   \r\n            uint returnBidAmount = currentProduct.highestBid.bidPrice;\r\n            previousBidder.transfer(returnBidAmount);\r\n\r\n            emit BidFailedEvent(previousBidder, productId);\r\n        }\r\n        \r\n        currentProduct.highestBid = newBid;\r\n        currentProduct.noOfBids += 1;\r\n\r\n        emit BidPlacedEvent(newBid.bidder, productId, msg.value); \r\n    }\r\n\r\n    /// @notice Function to get all the active Products under a perticular User\r\n    /// @return returns an array of active Products\r\n    function getMyProducts() onlySellers public view returns(Product[] memory)  \r\n    {               \r\n        Product[] memory currAll = sellerToProduct[msg.sender];\r\n        return currAll;\r\n     } \r\n\r\n\r\n    /// @notice Simple function to easily query the highest bidder of any product if exists\r\n    /// @param productId the id of the Product in question in type bytes32\r\n    /// @return the struct Bid which contains the highest Bidder \r\n    function getHighestBid(bytes32 productId) public view returns(Bid memory) \r\n    { \r\n         return activeProducts[productId].highestBid;\r\n    }   \r\n    \r\n    /// @notice This function allows sellers to close the auction before the deadline\r\n    /// @param productId is the generated ID of the product\r\n\r\n    function closeAuction(bytes32 productId) public payable onlySellers() \r\n    {\r\n        Product storage currentProduct = activeProducts[productId];\r\n        require(block.timestamp >= currentProduct.deadline);\r\n        require(msg.sender == currentProduct.seller, \"You can't declare the auction as closed\");\r\n\r\n        if (currentProduct.highestBid.bidder != address(0)) {         \r\n            uint highestBidPrice = currentProduct.highestBid.bidPrice;\r\n            address payable previousBidder = address(uint(currentProduct.highestBid.bidder));   \r\n            previousBidder.transfer(highestBidPrice);\r\n\r\n            emit BidFailedEvent(previousBidder, productId);\r\n        }\r\n        \r\n        removeProduct(productId);\r\n\r\n        emit ProductClosedEvent(msg.sender, productId);\r\n    }\r\n\r\n\r\n    /// @notice This function allows sellers to succesfully sell a product after the bidding time\r\n    /// @param productId is the generated ID of the product\r\n\r\n    function sellAuction(bytes32 productId) public payable onlySellers() \r\n    {\r\n        Product storage currentProduct = activeProducts[productId];\r\n        require(block.timestamp < currentProduct.deadline);\r\n        require(msg.sender == currentProduct.seller, \"You cannot declare the auction as sold\");\r\n        require(currentProduct.highestBid.bidder != address(0), \"You cannot sell a product with no bids\");\r\n\r\n        uint highestBidPrice = activeProducts[productId].highestBid.bidPrice;\r\n        msg.sender.transfer(highestBidPrice);\r\n\r\n        address payable highestBidder = address(uint(activeProducts[productId].highestBid.bidder));\r\n\r\n        removeProduct(productId);\r\n\r\n        emit ProductSoldEvent(msg.sender, highestBidder, productId, highestBidPrice);\r\n\r\n    }\r\n    \r\n    function removeProduct(bytes32 productId) internal \r\n    {\r\n        delete activeProducts[productId];\r\n\r\n        for(uint i = 0; i < activeProductIds.length; i++) {\r\n            if(activeProductIds[i] == productId) {\r\n                activeProductIds[i] = activeProductIds[activeProductIds.length-1];\r\n                activeProductIds.pop();\r\n            }\r\n        }\r\n        \r\n\r\n        for(uint i = 0; i < sellerToProduct[msg.sender].length; i++) {\r\n            if (sellerToProduct[msg.sender][i].id == productId) {\r\n                sellerToProduct[msg.sender][i] = sellerToProduct[msg.sender][sellerToProduct[msg.sender].length - 1];\r\n                sellerToProduct[msg.sender].pop();\r\n            }\r\n        }\r\n        \r\n    }\r\n\r\n}\r\n",
  "sourcePath": "C:/Users/rsadi/BlockchainAuction/backend/contracts/Products.sol",
  "compiler": {
    "name": "solc",
    "version": "0.7.0+commit.9e61f92b.Emscripten.clang"
  },
  "schemaVersion": "3.3.3",
  "updatedAt": "2021-01-06T15:20:38.641Z",
  "networkType": "ethereum",
  "devdoc": {
    "kind": "dev",
    "methods": {
      "closeAuction(bytes32)": {
        "params": {
          "productId": "is the generated ID of the product"
        }
      },
      "getHighestBid(bytes32)": {
        "params": {
          "productId": "the id of the Product in question in type bytes32"
        },
        "returns": {
          "_0": "the struct Bid which contains the highest Bidder "
        }
      },
      "getMyProducts()": {
        "returns": {
          "_0": "returns an array of active Products"
        }
      },
      "sellAuction(bytes32)": {
        "params": {
          "productId": "is the generated ID of the product"
        }
      }
    },
    "version": 1
  },
  "userdoc": {
    "kind": "user",
    "methods": {
      "closeAuction(bytes32)": {
        "notice": "This function allows sellers to close the auction before the deadline"
      },
      "getHighestBid(bytes32)": {
        "notice": "Simple function to easily query the highest bidder of any product if exists"
      },
      "getMyProducts()": {
        "notice": "Function to get all the active Products under a perticular User"
      },
      "sellAuction(bytes32)": {
        "notice": "This function allows sellers to succesfully sell a product after the bidding time"
      }
    },
    "version": 1
  }
}