{
  "contractName": "Products",
  "abi": [
    {
      "anonymous": false,
      "inputs": [
        {
          "indexed": true,
          "internalType": "address",
          "name": "bidder",
          "type": "address"
        },
        {
          "indexed": false,
          "internalType": "bytes32",
          "name": "productId",
          "type": "bytes32"
        }
      ],
      "name": "BidFailedEvent",
      "type": "event"
    },
    {
      "anonymous": false,
      "inputs": [
        {
          "indexed": true,
          "internalType": "address",
          "name": "bidder",
          "type": "address"
        },
        {
          "indexed": false,
          "internalType": "bytes32",
          "name": "productId",
          "type": "bytes32"
        },
        {
          "indexed": false,
          "internalType": "uint256",
          "name": "price",
          "type": "uint256"
        }
      ],
      "name": "BidPlacedEvent",
      "type": "event"
    },
    {
      "anonymous": false,
      "inputs": [
        {
          "indexed": true,
          "internalType": "address",
          "name": "seller",
          "type": "address"
        },
        {
          "indexed": false,
          "internalType": "bytes32",
          "name": "productId",
          "type": "bytes32"
        }
      ],
      "name": "ProductClosedEvent",
      "type": "event"
    },
    {
      "anonymous": false,
      "inputs": [
        {
          "indexed": true,
          "internalType": "address",
          "name": "seller",
          "type": "address"
        },
        {
          "indexed": false,
          "internalType": "bytes32",
          "name": "productId",
          "type": "bytes32"
        },
        {
          "indexed": false,
          "internalType": "string",
          "name": "name",
          "type": "string"
        },
        {
          "indexed": false,
          "internalType": "string",
          "name": "description",
          "type": "string"
        }
      ],
      "name": "ProductLaunchEvent",
      "type": "event"
    },
    {
      "anonymous": false,
      "inputs": [
        {
          "indexed": true,
          "internalType": "address",
          "name": "seller",
          "type": "address"
        },
        {
          "indexed": true,
          "internalType": "address",
          "name": "buyer",
          "type": "address"
        },
        {
          "indexed": false,
          "internalType": "uint256",
          "name": "price",
          "type": "uint256"
        }
      ],
      "name": "ProductSoldEvent",
      "type": "event"
    },
    {
      "inputs": [
        {
          "internalType": "uint256",
          "name": "",
          "type": "uint256"
        }
      ],
      "name": "activeProductIds",
      "outputs": [
        {
          "internalType": "bytes32",
          "name": "",
          "type": "bytes32"
        }
      ],
      "stateMutability": "view",
      "type": "function",
      "constant": true
    },
    {
      "inputs": [
        {
          "internalType": "string",
          "name": "name",
          "type": "string"
        },
        {
          "internalType": "string",
          "name": "description",
          "type": "string"
        },
        {
          "internalType": "uint256",
          "name": "lowerBound",
          "type": "uint256"
        },
        {
          "internalType": "uint256",
          "name": "deadline",
          "type": "uint256"
        }
      ],
      "name": "addProduct",
      "outputs": [],
      "stateMutability": "nonpayable",
      "type": "function"
    },
    {
      "inputs": [
        {
          "internalType": "bytes32",
          "name": "productId",
          "type": "bytes32"
        }
      ],
      "name": "getProductDetailsById",
      "outputs": [
        {
          "components": [
            {
              "internalType": "bytes32",
              "name": "id",
              "type": "bytes32"
            },
            {
              "internalType": "string",
              "name": "name",
              "type": "string"
            },
            {
              "internalType": "string",
              "name": "description",
              "type": "string"
            },
            {
              "internalType": "uint256",
              "name": "lowerBound",
              "type": "uint256"
            },
            {
              "internalType": "uint256",
              "name": "deadline",
              "type": "uint256"
            },
            {
              "internalType": "uint256",
              "name": "noOfBids",
              "type": "uint256"
            },
            {
              "components": [
                {
                  "internalType": "address",
                  "name": "bidder",
                  "type": "address"
                },
                {
                  "internalType": "uint256",
                  "name": "bidPrice",
                  "type": "uint256"
                },
                {
                  "internalType": "uint256",
                  "name": "bidTime",
                  "type": "uint256"
                }
              ],
              "internalType": "struct Structures.Bid",
              "name": "highestBid",
              "type": "tuple"
            },
            {
              "internalType": "bool",
              "name": "isReal",
              "type": "bool"
            },
            {
              "internalType": "address",
              "name": "seller",
              "type": "address"
            }
          ],
          "internalType": "struct Structures.Product",
          "name": "",
          "type": "tuple"
        }
      ],
      "stateMutability": "view",
      "type": "function",
      "constant": true
    },
    {
      "inputs": [],
      "name": "getProductIds",
      "outputs": [
        {
          "internalType": "bytes32[]",
          "name": "",
          "type": "bytes32[]"
        }
      ],
      "stateMutability": "view",
      "type": "function",
      "constant": true
    },
    {
      "inputs": [
        {
          "internalType": "bytes32",
          "name": "productId",
          "type": "bytes32"
        }
      ],
      "name": "placeBid",
      "outputs": [],
      "stateMutability": "payable",
      "type": "function",
      "payable": true
    },
    {
      "inputs": [],
      "name": "getMyProducts",
      "outputs": [
        {
          "components": [
            {
              "internalType": "bytes32",
              "name": "id",
              "type": "bytes32"
            },
            {
              "internalType": "string",
              "name": "name",
              "type": "string"
            },
            {
              "internalType": "string",
              "name": "description",
              "type": "string"
            },
            {
              "internalType": "uint256",
              "name": "lowerBound",
              "type": "uint256"
            },
            {
              "internalType": "uint256",
              "name": "deadline",
              "type": "uint256"
            },
            {
              "internalType": "uint256",
              "name": "noOfBids",
              "type": "uint256"
            },
            {
              "components": [
                {
                  "internalType": "address",
                  "name": "bidder",
                  "type": "address"
                },
                {
                  "internalType": "uint256",
                  "name": "bidPrice",
                  "type": "uint256"
                },
                {
                  "internalType": "uint256",
                  "name": "bidTime",
                  "type": "uint256"
                }
              ],
              "internalType": "struct Structures.Bid",
              "name": "highestBid",
              "type": "tuple"
            },
            {
              "internalType": "bool",
              "name": "isReal",
              "type": "bool"
            },
            {
              "internalType": "address",
              "name": "seller",
              "type": "address"
            }
          ],
          "internalType": "struct Structures.Product[]",
          "name": "",
          "type": "tuple[]"
        }
      ],
      "stateMutability": "view",
      "type": "function",
      "constant": true
    },
    {
      "inputs": [
        {
          "internalType": "bytes32",
          "name": "productId",
          "type": "bytes32"
        }
      ],
      "name": "getHighestBid",
      "outputs": [
        {
          "components": [
            {
              "internalType": "address",
              "name": "bidder",
              "type": "address"
            },
            {
              "internalType": "uint256",
              "name": "bidPrice",
              "type": "uint256"
            },
            {
              "internalType": "uint256",
              "name": "bidTime",
              "type": "uint256"
            }
          ],
          "internalType": "struct Structures.Bid",
          "name": "",
          "type": "tuple"
        }
      ],
      "stateMutability": "view",
      "type": "function",
      "constant": true
    },
    {
      "inputs": [
        {
          "internalType": "bytes32",
          "name": "productId",
          "type": "bytes32"
        }
      ],
      "name": "closeAuction",
      "outputs": [],
      "stateMutability": "payable",
      "type": "function",
      "payable": true
    },
    {
      "inputs": [
        {
          "internalType": "bytes32",
          "name": "productId",
          "type": "bytes32"
        }
      ],
      "name": "sellAuction",
      "outputs": [],
      "stateMutability": "payable",
      "type": "function",
      "payable": true
    }
  ],
  "bytecode": "0x608060405234801561001057600080fd5b50612c8d806100206000396000f3fe6080604052600436106100865760003560e01c8063497ecfc511610059578063497ecfc5146101385780634bdafacf14610154578063e1bc092914610170578063fbf3c5d8146101ad578063fdca4ca3146101ea57610086565b806301cecd141461008b5780630db6d4ac146100b4578063201bbdbe146100d057806347428e7b1461010d575b600080fd5b34801561009757600080fd5b506100b260048036038101906100ad9190611fec565b610215565b005b6100ce60048036038101906100c99190611fc3565b6106ae565b005b3480156100dc57600080fd5b506100f760048036038101906100f29190611fc3565b610977565b6040516101049190612a1f565b60405180910390f35b34801561011957600080fd5b50610122610a10565b60405161012f9190612832565b60405180910390f35b610152600480360381019061014d9190611fc3565b610a68565b005b61016e60048036038101906101699190611fc3565b610e4d565b005b34801561017c57600080fd5b5061019760048036038101906101929190611fc3565b6110f1565b6040516101a49190612a3a565b60405180910390f35b3480156101b957600080fd5b506101d460048036038101906101cf919061207f565b6113e7565b6040516101e19190612876565b60405180910390f35b3480156101f657600080fd5b506101ff611408565b60405161020c9190612854565b60405180910390f35b600084848360405160200161022c939291906127fd565b60405160208183030381529060405280519060200120905060008082815260200190815260200160002060090160009054906101000a900460ff16156102a7576040517f08c379a000000000000000000000000000000000000000000000000000000000815260040161029e9061293f565b60405180910390fd5b6102af611d35565b6040518060600160405280600073ffffffffffffffffffffffffffffffffffffffff16815260200160008152602001600081525090506102ed611d6c565b604051806101200160405280848152602001888152602001878152602001868152602001858152602001600081526020018381526020016001151581526020013373ffffffffffffffffffffffffffffffffffffffff16815250905080600080858152602001908152602001600020600082015181600001556020820151816001019080519060200190610382929190611dd9565b50604082015181600201908051906020019061039f929190611dd9565b50606082015181600301556080820151816004015560a0820151816005015560c08201518160060160008201518160000160006101000a81548173ffffffffffffffffffffffffffffffffffffffff021916908373ffffffffffffffffffffffffffffffffffffffff1602179055506020820151816001015560408201518160020155505060e08201518160090160006101000a81548160ff0219169083151502179055506101008201518160090160016101000a81548173ffffffffffffffffffffffffffffffffffffffff021916908373ffffffffffffffffffffffffffffffffffffffff160217905550905050600260003373ffffffffffffffffffffffffffffffffffffffff1673ffffffffffffffffffffffffffffffffffffffff1681526020019081526020016000208190806001815401808255809150506001900390600052602060002090600a020160009091909190915060008201518160000155602082015181600101908051906020019061051e929190611dd9565b50604082015181600201908051906020019061053b929190611dd9565b50606082015181600301556080820151816004015560a0820151816005015560c08201518160060160008201518160000160006101000a81548173ffffffffffffffffffffffffffffffffffffffff021916908373ffffffffffffffffffffffffffffffffffffffff1602179055506020820151816001015560408201518160020155505060e08201518160090160006101000a81548160ff0219169083151502179055506101008201518160090160016101000a81548173ffffffffffffffffffffffffffffffffffffffff021916908373ffffffffffffffffffffffffffffffffffffffff160217905550505060018390806001815401808255809150506001900390600052602060002001600090919091909150553373ffffffffffffffffffffffffffffffffffffffff167fc8890bc2a29e1faed53da248b1c27892231cdee40749ba9b97f7227c6f41290884898960405161069d93929190612891565b60405180910390a250505050505050565b6000600260003373ffffffffffffffffffffffffffffffffffffffff1673ffffffffffffffffffffffffffffffffffffffff16815260200190815260200160002080549050116106fd57600080fd5b600080600083815260200190815260200160002090508060040154421061072357600080fd5b8060090160019054906101000a900473ffffffffffffffffffffffffffffffffffffffff1673ffffffffffffffffffffffffffffffffffffffff163373ffffffffffffffffffffffffffffffffffffffff16146107b5576040517f08c379a00000000000000000000000000000000000000000000000000000000081526004016107ac9061295f565b60405180910390fd5b600073ffffffffffffffffffffffffffffffffffffffff168160060160000160009054906101000a900473ffffffffffffffffffffffffffffffffffffffff1673ffffffffffffffffffffffffffffffffffffffff16141561084c576040517f08c379a00000000000000000000000000000000000000000000000000000000081526004016108439061299f565b60405180910390fd5b60008060008481526020019081526020016000206006016001015490503373ffffffffffffffffffffffffffffffffffffffff166108fc829081150290604051600060405180830381858888f193505050501580156108af573d6000803e3d6000fd5b50600080600085815260200190815260200160002060060160000160009054906101000a900473ffffffffffffffffffffffffffffffffffffffff1673ffffffffffffffffffffffffffffffffffffffff16905061090c84611755565b8073ffffffffffffffffffffffffffffffffffffffff163373ffffffffffffffffffffffffffffffffffffffff167f426cd7ebf64b01a0ec86194e75d0bc351f5e1d9e74a601524fb7eb802c125068846040516109699190612a5c565b60405180910390a350505050565b61097f611d35565b6000808381526020019081526020016000206006016040518060600160405290816000820160009054906101000a900473ffffffffffffffffffffffffffffffffffffffff1673ffffffffffffffffffffffffffffffffffffffff1673ffffffffffffffffffffffffffffffffffffffff168152602001600182015481526020016002820154815250509050919050565b60606001805480602002602001604051908101604052809291908181526020018280548015610a5e57602002820191906000526020600020905b815481526020019060010190808311610a4a575b5050505050905090565b80600080600083815260200190815260200160002090508060090160009054906101000a900460ff16610ad0576040517f08c379a0000000000000000000000000000000000000000000000000000000008152600401610ac7906128ff565b60405180910390fd5b80600401544210610b16576040517f08c379a0000000000000000000000000000000000000000000000000000000008152600401610b0d906129ff565b60405180910390fd5b80600601600101543411610b5f576040517f08c379a0000000000000000000000000000000000000000000000000000000008152600401610b56906129bf565b60405180910390fd5b8060030154341015610ba6576040517f08c379a0000000000000000000000000000000000000000000000000000000008152600401610b9d9061297f565b60405180910390fd5b8060090160019054906101000a900473ffffffffffffffffffffffffffffffffffffffff1673ffffffffffffffffffffffffffffffffffffffff163373ffffffffffffffffffffffffffffffffffffffff161415610c39576040517f08c379a0000000000000000000000000000000000000000000000000000000008152600401610c309061291f565b60405180910390fd5b60008060008581526020019081526020016000209050610c57611d35565b60405180606001604052803373ffffffffffffffffffffffffffffffffffffffff1681526020013481526020014281525090506001826005015410610d7c5760008260060160000160009054906101000a900473ffffffffffffffffffffffffffffffffffffffff1673ffffffffffffffffffffffffffffffffffffffff1690506000836006016001015490508173ffffffffffffffffffffffffffffffffffffffff166108fc829081150290604051600060405180830381858888f19350505050158015610d2a573d6000803e3d6000fd5b508173ffffffffffffffffffffffffffffffffffffffff167f4d6bca05efc4f82cbc52df5a45dbc024f8da3c842184303fffd632c996de144a88604051610d719190612876565b60405180910390a250505b808260060160008201518160000160006101000a81548173ffffffffffffffffffffffffffffffffffffffff021916908373ffffffffffffffffffffffffffffffffffffffff160217905550602082015181600101556040820151816002015590505060018260050160008282540192505081905550806000015173ffffffffffffffffffffffffffffffffffffffff167f11034bf5a8999be1961a6eb59ebc62f2b0ad67cfdc04a45e152332b99977e3918634604051610e3e9291906128d6565b60405180910390a25050505050565b6000600260003373ffffffffffffffffffffffffffffffffffffffff1673ffffffffffffffffffffffffffffffffffffffff1681526020019081526020016000208054905011610e9c57600080fd5b600080600083815260200190815260200160002090508060040154421015610ec357600080fd5b8060090160019054906101000a900473ffffffffffffffffffffffffffffffffffffffff1673ffffffffffffffffffffffffffffffffffffffff163373ffffffffffffffffffffffffffffffffffffffff1614610f55576040517f08c379a0000000000000000000000000000000000000000000000000000000008152600401610f4c906129df565b60405180910390fd5b600073ffffffffffffffffffffffffffffffffffffffff168160060160000160009054906101000a900473ffffffffffffffffffffffffffffffffffffffff1673ffffffffffffffffffffffffffffffffffffffff16146110965760008160060160010154905060008260060160000160009054906101000a900473ffffffffffffffffffffffffffffffffffffffff1673ffffffffffffffffffffffffffffffffffffffff1690508073ffffffffffffffffffffffffffffffffffffffff166108fc839081150290604051600060405180830381858888f19350505050158015611044573d6000803e3d6000fd5b508073ffffffffffffffffffffffffffffffffffffffff167f4d6bca05efc4f82cbc52df5a45dbc024f8da3c842184303fffd632c996de144a8560405161108b9190612876565b60405180910390a250505b61109f82611755565b3373ffffffffffffffffffffffffffffffffffffffff167f3669e75c00e17b558f06bad1d55afaea2ca57875a9637560540ea8af5a4d67ba836040516110e59190612876565b60405180910390a25050565b6110f9611d6c565b60008083815260200190815260200160002060090160009054906101000a900460ff1661115b576040517f08c379a0000000000000000000000000000000000000000000000000000000008152600401611152906128ff565b60405180910390fd5b611163611d6c565b6000808481526020019081526020016000206040518061012001604052908160008201548152602001600182018054600181600116156101000203166002900480601f0160208091040260200160405190810160405280929190818152602001828054600181600116156101000203166002900480156112245780601f106111f957610100808354040283529160200191611224565b820191906000526020600020905b81548152906001019060200180831161120757829003601f168201915b50505050508152602001600282018054600181600116156101000203166002900480601f0160208091040260200160405190810160405280929190818152602001828054600181600116156101000203166002900480156112c65780601f1061129b576101008083540402835291602001916112c6565b820191906000526020600020905b8154815290600101906020018083116112a957829003601f168201915b50505050508152602001600382015481526020016004820154815260200160058201548152602001600682016040518060600160405290816000820160009054906101000a900473ffffffffffffffffffffffffffffffffffffffff1673ffffffffffffffffffffffffffffffffffffffff1673ffffffffffffffffffffffffffffffffffffffff1681526020016001820154815260200160028201548152505081526020016009820160009054906101000a900460ff161515151581526020016009820160019054906101000a900473ffffffffffffffffffffffffffffffffffffffff1673ffffffffffffffffffffffffffffffffffffffff1673ffffffffffffffffffffffffffffffffffffffff1681525050905080915050919050565b600181815481106113f457fe5b906000526020600020016000915090505481565b60606000600260003373ffffffffffffffffffffffffffffffffffffffff1673ffffffffffffffffffffffffffffffffffffffff168152602001908152602001600020805490501161145957600080fd5b6060600260003373ffffffffffffffffffffffffffffffffffffffff1673ffffffffffffffffffffffffffffffffffffffff168152602001908152602001600020805480602002602001604051908101604052809291908181526020016000905b8282101561174857838290600052602060002090600a02016040518061012001604052908160008201548152602001600182018054600181600116156101000203166002900480601f0160208091040260200160405190810160405280929190818152602001828054600181600116156101000203166002900480156115815780601f1061155657610100808354040283529160200191611581565b820191906000526020600020905b81548152906001019060200180831161156457829003601f168201915b50505050508152602001600282018054600181600116156101000203166002900480601f0160208091040260200160405190810160405280929190818152602001828054600181600116156101000203166002900480156116235780601f106115f857610100808354040283529160200191611623565b820191906000526020600020905b81548152906001019060200180831161160657829003601f168201915b50505050508152602001600382015481526020016004820154815260200160058201548152602001600682016040518060600160405290816000820160009054906101000a900473ffffffffffffffffffffffffffffffffffffffff1673ffffffffffffffffffffffffffffffffffffffff1673ffffffffffffffffffffffffffffffffffffffff1681526020016001820154815260200160028201548152505081526020016009820160009054906101000a900460ff161515151581526020016009820160019054906101000a900473ffffffffffffffffffffffffffffffffffffffff1673ffffffffffffffffffffffffffffffffffffffff1673ffffffffffffffffffffffffffffffffffffffff1681525050815260200190600101906114ba565b5050505090508091505090565b6000808281526020019081526020016000206000808201600090556001820160006117809190611e59565b6002820160006117909190611e59565b60038201600090556004820160009055600582016000905560068201600080820160006101000a81549073ffffffffffffffffffffffffffffffffffffffff02191690556001820160009055600282016000905550506009820160006101000a81549060ff02191690556009820160016101000a81549073ffffffffffffffffffffffffffffffffffffffff0219169055505060005b6001805490508110156118ba57816001828154811061184157fe5b906000526020600020015414156118ad576001808080549050038154811061186557fe5b90600052602060002001546001828154811061187d57fe5b9060005260206000200181905550600180548061189657fe5b600190038181906000526020600020016000905590555b8080600101915050611826565b5060005b600260003373ffffffffffffffffffffffffffffffffffffffff1673ffffffffffffffffffffffffffffffffffffffff16815260200190815260200160002080549050811015611d315760008083815260200190815260200160002060000154600260003373ffffffffffffffffffffffffffffffffffffffff1673ffffffffffffffffffffffffffffffffffffffff168152602001908152602001600020828154811061196857fe5b90600052602060002090600a0201600001541415611d2457600260003373ffffffffffffffffffffffffffffffffffffffff1673ffffffffffffffffffffffffffffffffffffffff1681526020019081526020016000206001600260003373ffffffffffffffffffffffffffffffffffffffff1673ffffffffffffffffffffffffffffffffffffffff168152602001908152602001600020805490500381548110611a0f57fe5b90600052602060002090600a0201600260003373ffffffffffffffffffffffffffffffffffffffff1673ffffffffffffffffffffffffffffffffffffffff1681526020019081526020016000208281548110611a6757fe5b90600052602060002090600a02016000820154816000015560018201816001019080546001816001161561010002031660029004611aa6929190611ea1565b5060028201816002019080546001816001161561010002031660029004611ace929190611ea1565b5060038201548160030155600482015481600401556005820154816005015560068201816006016000820160009054906101000a900473ffffffffffffffffffffffffffffffffffffffff168160000160006101000a81548173ffffffffffffffffffffffffffffffffffffffff021916908373ffffffffffffffffffffffffffffffffffffffff160217905550600182015481600101556002820154816002015550506009820160009054906101000a900460ff168160090160006101000a81548160ff0219169083151502179055506009820160019054906101000a900473ffffffffffffffffffffffffffffffffffffffff168160090160016101000a81548173ffffffffffffffffffffffffffffffffffffffff021916908373ffffffffffffffffffffffffffffffffffffffff160217905550905050600260003373ffffffffffffffffffffffffffffffffffffffff1673ffffffffffffffffffffffffffffffffffffffff168152602001908152602001600020805480611c5157fe5b60019003818190600052602060002090600a0201600080820160009055600182016000611c7e9190611e59565b600282016000611c8e9190611e59565b60038201600090556004820160009055600582016000905560068201600080820160006101000a81549073ffffffffffffffffffffffffffffffffffffffff02191690556001820160009055600282016000905550506009820160006101000a81549060ff02191690556009820160016101000a81549073ffffffffffffffffffffffffffffffffffffffff0219169055505090555b80806001019150506118be565b5050565b6040518060600160405280600073ffffffffffffffffffffffffffffffffffffffff16815260200160008152602001600081525090565b604051806101200160405280600080191681526020016060815260200160608152602001600081526020016000815260200160008152602001611dad611d35565b8152602001600015158152602001600073ffffffffffffffffffffffffffffffffffffffff1681525090565b828054600181600116156101000203166002900490600052602060002090601f016020900481019282601f10611e1a57805160ff1916838001178555611e48565b82800160010185558215611e48579182015b82811115611e47578251825591602001919060010190611e2c565b5b509050611e559190611f28565b5090565b50805460018160011615610100020316600290046000825580601f10611e7f5750611e9e565b601f016020900490600052602060002090810190611e9d9190611f28565b5b50565b828054600181600116156101000203166002900490600052602060002090601f016020900481019282601f10611eda5780548555611f17565b82800160010185558215611f1757600052602060002091601f016020900482015b82811115611f16578254825591600101919060010190611efb565b5b509050611f249190611f28565b5090565b5b80821115611f41576000816000905550600101611f29565b5090565b600081359050611f5481612c29565b92915050565b600082601f830112611f6b57600080fd5b8135611f7e611f7982612aa4565b612a77565b91508082526020830160208301858383011115611f9a57600080fd5b611fa5838284612bcc565b50505092915050565b600081359050611fbd81612c40565b92915050565b600060208284031215611fd557600080fd5b6000611fe384828501611f45565b91505092915050565b6000806000806080858703121561200257600080fd5b600085013567ffffffffffffffff81111561201c57600080fd5b61202887828801611f5a565b945050602085013567ffffffffffffffff81111561204557600080fd5b61205187828801611f5a565b935050604061206287828801611fae565b925050606061207387828801611fae565b91505092959194509250565b60006020828403121561209157600080fd5b600061209f84828501611fae565b91505092915050565b60006120b483836121c5565b60208301905092915050565b60006120cc838361262e565b905092915050565b6120dd81612b7a565b82525050565b60006120ee82612af0565b6120f88185612b2b565b935061210383612ad0565b8060005b8381101561213457815161211b88826120a8565b975061212683612b11565b925050600181019050612107565b5085935050505092915050565b600061214c82612afb565b6121568185612b3c565b93508360208202850161216885612ae0565b8060005b858110156121a4578484038952815161218585826120c0565b945061219083612b1e565b925060208a0199505060018101905061216c565b50829750879550505050505092915050565b6121bf81612b8c565b82525050565b6121ce81612b98565b82525050565b6121dd81612b98565b82525050565b60006121ee82612b06565b6121f88185612b4d565b9350612208818560208601612bdb565b61221181612c18565b840191505092915050565b600061222782612b06565b6122318185612b5e565b9350612241818560208601612bdb565b61224a81612c18565b840191505092915050565b600061226082612b06565b61226a8185612b6f565b935061227a818560208601612bdb565b80840191505092915050565b6000612293601683612b5e565b91507f50726f6475637420646f6573206e6f74206578697374000000000000000000006000830152602082019050919050565b60006122d3602283612b5e565b91507f596f7520617265206e6f7420616c6c6f77656420746f20706c6163652061206260008301527f69640000000000000000000000000000000000000000000000000000000000006020830152604082019050919050565b6000612339601683612b5e565b91507f50726f6475637420616c726561647920657869737473000000000000000000006000830152602082019050919050565b6000612379602683612b5e565b91507f596f752063616e6e6f74206465636c617265207468652061756374696f6e206160008301527f7320736f6c6400000000000000000000000000000000000000000000000000006020830152604082019050919050565b60006123df602983612b5e565b91507f426964207072696365206d75737420626520686967686572207468616e206c6f60008301527f77657220626f756e6400000000000000000000000000000000000000000000006020830152604082019050919050565b6000612445602683612b5e565b91507f596f752063616e6e6f742073656c6c20612070726f647563742077697468206e60008301527f6f206269647300000000000000000000000000000000000000000000000000006020830152604082019050919050565b60006124ab602983612b5e565b91507f426964207072696365206d75737420626520686967686572207468616e20637560008301527f7272656e742062696400000000000000000000000000000000000000000000006020830152604082019050919050565b6000612511602783612b5e565b91507f596f752063616e2774206465636c617265207468652061756374696f6e20617360008301527f20636c6f736564000000000000000000000000000000000000000000000000006020830152604082019050919050565b6000612577601483612b5e565b91507f41756374696f6e2074696d6520656c61707365640000000000000000000000006000830152602082019050919050565b6060820160008201516125c060008501826120d4565b5060208201516125d360208501826127c8565b5060408201516125e660408501826127c8565b50505050565b60608201600082015161260260008501826120d4565b50602082015161261560208501826127c8565b50604082015161262860408501826127c8565b50505050565b60006101608301600083015161264760008601826121c5565b506020830151848203602086015261265f82826121e3565b9150506040830151848203604086015261267982826121e3565b915050606083015161268e60608601826127c8565b5060808301516126a160808601826127c8565b5060a08301516126b460a08601826127c8565b5060c08301516126c760c08601826125aa565b5060e08301516126db6101208601826121b6565b506101008301516126f06101408601826120d4565b508091505092915050565b60006101608301600083015161271460008601826121c5565b506020830151848203602086015261272c82826121e3565b9150506040830151848203604086015261274682826121e3565b915050606083015161275b60608601826127c8565b50608083015161276e60808601826127c8565b5060a083015161278160a08601826127c8565b5060c083015161279460c08601826125aa565b5060e08301516127a86101208601826121b6565b506101008301516127bd6101408601826120d4565b508091505092915050565b6127d181612bc2565b82525050565b6127e081612bc2565b82525050565b6127f76127f282612bc2565b612c0e565b82525050565b60006128098286612255565b91506128158285612255565b915061282182846127e6565b602082019150819050949350505050565b6000602082019050818103600083015261284c81846120e3565b905092915050565b6000602082019050818103600083015261286e8184612141565b905092915050565b600060208201905061288b60008301846121d4565b92915050565b60006060820190506128a660008301866121d4565b81810360208301526128b8818561221c565b905081810360408301526128cc818461221c565b9050949350505050565b60006040820190506128eb60008301856121d4565b6128f860208301846127d7565b9392505050565b6000602082019050818103600083015261291881612286565b9050919050565b60006020820190508181036000830152612938816122c6565b9050919050565b600060208201905081810360008301526129588161232c565b9050919050565b600060208201905081810360008301526129788161236c565b9050919050565b60006020820190508181036000830152612998816123d2565b9050919050565b600060208201905081810360008301526129b881612438565b9050919050565b600060208201905081810360008301526129d88161249e565b9050919050565b600060208201905081810360008301526129f881612504565b9050919050565b60006020820190508181036000830152612a188161256a565b9050919050565b6000606082019050612a3460008301846125ec565b92915050565b60006020820190508181036000830152612a5481846126fb565b905092915050565b6000602082019050612a7160008301846127d7565b92915050565b6000604051905081810181811067ffffffffffffffff82111715612a9a57600080fd5b8060405250919050565b600067ffffffffffffffff821115612abb57600080fd5b601f19601f8301169050602081019050919050565b6000819050602082019050919050565b6000819050602082019050919050565b600081519050919050565b600081519050919050565b600081519050919050565b6000602082019050919050565b6000602082019050919050565b600082825260208201905092915050565b600082825260208201905092915050565b600082825260208201905092915050565b600082825260208201905092915050565b600081905092915050565b6000612b8582612ba2565b9050919050565b60008115159050919050565b6000819050919050565b600073ffffffffffffffffffffffffffffffffffffffff82169050919050565b6000819050919050565b82818337600083830152505050565b60005b83811015612bf9578082015181840152602081019050612bde565b83811115612c08576000848401525b50505050565b6000819050919050565b6000601f19601f8301169050919050565b612c3281612b98565b8114612c3d57600080fd5b50565b612c4981612bc2565b8114612c5457600080fd5b5056fea264697066735822122056c3be54faabe617f4649446ee030631a18913c62497c9a1abd4a7d39a573afd64736f6c63430007000033",
  "immutableReferences": {},
  "source": "// SPDX-License-Identifier: UNLICENSED\r\npragma solidity ^0.7.0;\r\npragma experimental ABIEncoderV2;\r\nimport \"./Buyers.sol\";\r\nimport \"./Sellers.sol\";\r\n\r\ncontract Products is Buyers, Sellers {\r\n\r\n    mapping(bytes32 => Product) activeProducts;\r\n    bytes32[] public activeProductIds;\r\n    mapping(address => Product[]) private sellerToProduct;\r\n\r\n    modifier onlySellers() \r\n    {\r\n        require(sellerToProduct[msg.sender].length > 0);\r\n        _;\r\n    }\r\n\r\n    modifier isValidBid(bytes32 productId) \r\n    {\r\n        Product storage currentProduct = activeProducts[productId];\r\n        require(currentProduct.isReal, \"Product does not exist\");\r\n        require(block.timestamp < currentProduct.deadline, \"Auction time elapsed\");\r\n        require(msg.value > currentProduct.highestBid.bidPrice, \"Bid price must be higher than current bid\");\r\n        require(msg.value >= currentProduct.lowerBound, \"Bid price must be higher than lower bound\");\r\n        require(msg.sender != currentProduct.seller, \"You are not allowed to place a bid\");\r\n        _;\r\n    }\r\n\r\n    function addProduct(string memory name, string memory description, uint lowerBound, uint deadline) public \r\n    {\r\n        bytes32 productId = keccak256(abi.encodePacked(name, description, deadline));\r\n        require(!activeProducts[productId].isReal, \"Product already exists\");\r\n        Bid memory emptyBid = Bid(address(0), 0, 0);\r\n        Product memory product = Product(productId, name, description, lowerBound, deadline, 0, emptyBid, true, msg.sender);\r\n        activeProducts[productId] = product;\r\n        sellerToProduct[msg.sender].push(product);\r\n        activeProductIds.push(productId);\r\n\r\n        emit ProductLaunchEvent(msg.sender, productId, name, description);\r\n    }\r\n\r\n    function getProductDetailsById(bytes32 productId) public view returns (Product memory)\r\n    {\r\n        require(activeProducts[productId].isReal, \"Product does not exist\");\r\n        \r\n        Product memory product = activeProducts[productId];\r\n        return product;\r\n    }\r\n\r\n    function getProductIds() public view returns (bytes32[] memory) {\r\n        return activeProductIds;\r\n    }\r\n\r\n    function placeBid(bytes32 productId) public payable isValidBid(productId) \r\n    {\r\n        Product storage currentProduct = activeProducts[productId];\r\n        \r\n        Bid memory newBid = Bid({\r\n            bidder: msg.sender,\r\n            bidPrice: msg.value,\r\n            bidTime: block.timestamp\r\n        });\r\n\r\n        if (currentProduct.noOfBids >= 1) {\r\n            address payable previousBidder = address(uint(currentProduct.highestBid.bidder));   \r\n            uint returnBidAmount = currentProduct.highestBid.bidPrice;\r\n            previousBidder.transfer(returnBidAmount);\r\n\r\n            emit BidFailedEvent(previousBidder, productId);\r\n        }\r\n        \r\n        currentProduct.highestBid = newBid;\r\n        currentProduct.noOfBids += 1;\r\n\r\n        emit BidPlacedEvent(newBid.bidder, productId, msg.value); \r\n    }\r\n\r\n    function getMyProducts() onlySellers public view returns(Product[] memory)  \r\n    {               \r\n        Product[] memory currAll = sellerToProduct[msg.sender];\r\n        return currAll;\r\n     } \r\n\r\n\r\n    function getHighestBid(bytes32 productId) public view returns(Bid memory) \r\n    { \r\n         return activeProducts[productId].highestBid;\r\n    }   \r\n    \r\n    function closeAuction(bytes32 productId) public payable onlySellers() \r\n    {\r\n        Product storage currentProduct = activeProducts[productId];\r\n        require(block.timestamp >= currentProduct.deadline);\r\n        require(msg.sender == currentProduct.seller, \"You can't declare the auction as closed\");\r\n\r\n        if (currentProduct.highestBid.bidder != address(0)) {         \r\n            uint highestBidPrice = currentProduct.highestBid.bidPrice;\r\n            address payable previousBidder = address(uint(currentProduct.highestBid.bidder));   \r\n            previousBidder.transfer(highestBidPrice);\r\n\r\n            emit BidFailedEvent(previousBidder, productId);\r\n        }\r\n        \r\n        removeProduct(productId);\r\n\r\n        emit ProductClosedEvent(msg.sender, productId);\r\n    }\r\n\r\n    function sellAuction(bytes32 productId) public payable onlySellers() \r\n    {\r\n        Product storage currentProduct = activeProducts[productId];\r\n        require(block.timestamp < currentProduct.deadline);\r\n        require(msg.sender == currentProduct.seller, \"You cannot declare the auction as sold\");\r\n        require(currentProduct.highestBid.bidder != address(0), \"You cannot sell a product with no bids\");\r\n\r\n        uint highestBidPrice = activeProducts[productId].highestBid.bidPrice;\r\n        msg.sender.transfer(highestBidPrice);\r\n\r\n        address payable highestBidder = address(uint(activeProducts[productId].highestBid.bidder));\r\n\r\n        removeProduct(productId);\r\n\r\n        emit ProductSoldEvent(msg.sender, highestBidder, highestBidPrice);\r\n\r\n    }\r\n    \r\n    function removeProduct(bytes32 productId) internal \r\n    {\r\n        delete activeProducts[productId];\r\n\r\n        for(uint i = 0; i < activeProductIds.length; i++) {\r\n            if(activeProductIds[i] == productId) {\r\n                activeProductIds[i] = activeProductIds[activeProductIds.length-1];\r\n                activeProductIds.pop();\r\n            }\r\n        }\r\n        \r\n\r\n        for(uint i = 0; i < sellerToProduct[msg.sender].length; i++) {\r\n            if (sellerToProduct[msg.sender][i].id == activeProducts[productId].id) {\r\n                sellerToProduct[msg.sender][i] = sellerToProduct[msg.sender][sellerToProduct[msg.sender].length - 1];\r\n                sellerToProduct[msg.sender].pop();\r\n            }\r\n        }\r\n        \r\n    }\r\n\r\n}",
  "sourcePath": "C:/Users/rsadi/BlockchainAuction/backend/contracts/Products.sol",
  "compiler": {
    "name": "solc",
    "version": "0.7.0+commit.9e61f92b.Emscripten.clang"
  },
  "schemaVersion": "3.3.3",
  "updatedAt": "2020-12-24T17:02:14.931Z",
  "networkType": "ethereum",
  "devdoc": {
    "kind": "dev",
    "methods": {},
    "version": 1
  },
  "userdoc": {
    "kind": "user",
    "methods": {},
    "version": 1
  }
}