{
  "contractName": "Products",
  "abi": [
    {
      "anonymous": false,
      "inputs": [
        {
          "indexed": true,
          "internalType": "address",
          "name": "bidder",
          "type": "address"
        },
        {
          "indexed": false,
          "internalType": "bytes32",
          "name": "productId",
          "type": "bytes32"
        }
      ],
      "name": "BidFailedEvent",
      "type": "event"
    },
    {
      "anonymous": false,
      "inputs": [
        {
          "indexed": true,
          "internalType": "address",
          "name": "bidder",
          "type": "address"
        },
        {
          "indexed": false,
          "internalType": "bytes32",
          "name": "productId",
          "type": "bytes32"
        },
        {
          "indexed": false,
          "internalType": "uint256",
          "name": "price",
          "type": "uint256"
        }
      ],
      "name": "BidPlacedEvent",
      "type": "event"
    },
    {
      "anonymous": false,
      "inputs": [
        {
          "indexed": true,
          "internalType": "address",
          "name": "seller",
          "type": "address"
        },
        {
          "indexed": false,
          "internalType": "bytes32",
          "name": "productId",
          "type": "bytes32"
        }
      ],
      "name": "ProductClosedEvent",
      "type": "event"
    },
    {
      "anonymous": false,
      "inputs": [
        {
          "indexed": true,
          "internalType": "address",
          "name": "seller",
          "type": "address"
        },
        {
          "indexed": false,
          "internalType": "bytes32",
          "name": "productId",
          "type": "bytes32"
        },
        {
          "indexed": false,
          "internalType": "string",
          "name": "name",
          "type": "string"
        },
        {
          "indexed": false,
          "internalType": "string",
          "name": "description",
          "type": "string"
        }
      ],
      "name": "ProductLaunchEvent",
      "type": "event"
    },
    {
      "anonymous": false,
      "inputs": [
        {
          "indexed": true,
          "internalType": "address",
          "name": "seller",
          "type": "address"
        },
        {
          "indexed": true,
          "internalType": "address",
          "name": "buyer",
          "type": "address"
        },
        {
          "indexed": false,
          "internalType": "uint256",
          "name": "price",
          "type": "uint256"
        }
      ],
      "name": "ProductSoldEvent",
      "type": "event"
    },
    {
      "inputs": [
        {
          "internalType": "uint256",
          "name": "",
          "type": "uint256"
        }
      ],
      "name": "activeProductIds",
      "outputs": [
        {
          "internalType": "bytes32",
          "name": "",
          "type": "bytes32"
        }
      ],
      "stateMutability": "view",
      "type": "function",
      "constant": true
    },
    {
      "inputs": [
        {
          "internalType": "string",
          "name": "name",
          "type": "string"
        },
        {
          "internalType": "string",
          "name": "description",
          "type": "string"
        },
        {
          "internalType": "uint256",
          "name": "lowerBound",
          "type": "uint256"
        },
        {
          "internalType": "uint256",
          "name": "deadline",
          "type": "uint256"
        }
      ],
      "name": "addProduct",
      "outputs": [],
      "stateMutability": "nonpayable",
      "type": "function"
    },
    {
      "inputs": [
        {
          "internalType": "bytes32",
          "name": "productId",
          "type": "bytes32"
        }
      ],
      "name": "getProductDetailsById",
      "outputs": [
        {
          "components": [
            {
              "internalType": "bytes32",
              "name": "id",
              "type": "bytes32"
            },
            {
              "internalType": "string",
              "name": "name",
              "type": "string"
            },
            {
              "internalType": "string",
              "name": "description",
              "type": "string"
            },
            {
              "internalType": "uint256",
              "name": "lowerBound",
              "type": "uint256"
            },
            {
              "internalType": "uint256",
              "name": "deadline",
              "type": "uint256"
            },
            {
              "internalType": "uint256",
              "name": "noOfBids",
              "type": "uint256"
            },
            {
              "components": [
                {
                  "internalType": "address",
                  "name": "bidder",
                  "type": "address"
                },
                {
                  "internalType": "uint256",
                  "name": "bidPrice",
                  "type": "uint256"
                },
                {
                  "internalType": "uint256",
                  "name": "bidTime",
                  "type": "uint256"
                }
              ],
              "internalType": "struct Structures.Bid",
              "name": "highestBid",
              "type": "tuple"
            },
            {
              "internalType": "bool",
              "name": "isReal",
              "type": "bool"
            },
            {
              "internalType": "address",
              "name": "seller",
              "type": "address"
            }
          ],
          "internalType": "struct Structures.Product",
          "name": "",
          "type": "tuple"
        }
      ],
      "stateMutability": "view",
      "type": "function",
      "constant": true
    },
    {
      "inputs": [
        {
          "internalType": "bytes32",
          "name": "productId",
          "type": "bytes32"
        }
      ],
      "name": "placeBid",
      "outputs": [],
      "stateMutability": "payable",
      "type": "function",
      "payable": true
    },
    {
      "inputs": [],
      "name": "getMyProducts",
      "outputs": [
        {
          "components": [
            {
              "internalType": "bytes32",
              "name": "id",
              "type": "bytes32"
            },
            {
              "internalType": "string",
              "name": "name",
              "type": "string"
            },
            {
              "internalType": "string",
              "name": "description",
              "type": "string"
            },
            {
              "internalType": "uint256",
              "name": "lowerBound",
              "type": "uint256"
            },
            {
              "internalType": "uint256",
              "name": "deadline",
              "type": "uint256"
            },
            {
              "internalType": "uint256",
              "name": "noOfBids",
              "type": "uint256"
            },
            {
              "components": [
                {
                  "internalType": "address",
                  "name": "bidder",
                  "type": "address"
                },
                {
                  "internalType": "uint256",
                  "name": "bidPrice",
                  "type": "uint256"
                },
                {
                  "internalType": "uint256",
                  "name": "bidTime",
                  "type": "uint256"
                }
              ],
              "internalType": "struct Structures.Bid",
              "name": "highestBid",
              "type": "tuple"
            },
            {
              "internalType": "bool",
              "name": "isReal",
              "type": "bool"
            },
            {
              "internalType": "address",
              "name": "seller",
              "type": "address"
            }
          ],
          "internalType": "struct Structures.Product[]",
          "name": "",
          "type": "tuple[]"
        }
      ],
      "stateMutability": "view",
      "type": "function",
      "constant": true
    },
    {
      "inputs": [
        {
          "internalType": "bytes32",
          "name": "productId",
          "type": "bytes32"
        }
      ],
      "name": "getHighestBid",
      "outputs": [
        {
          "components": [
            {
              "internalType": "address",
              "name": "bidder",
              "type": "address"
            },
            {
              "internalType": "uint256",
              "name": "bidPrice",
              "type": "uint256"
            },
            {
              "internalType": "uint256",
              "name": "bidTime",
              "type": "uint256"
            }
          ],
          "internalType": "struct Structures.Bid",
          "name": "",
          "type": "tuple"
        }
      ],
      "stateMutability": "view",
      "type": "function",
      "constant": true
    },
    {
      "inputs": [
        {
          "internalType": "bytes32",
          "name": "productId",
          "type": "bytes32"
        }
      ],
      "name": "closeAuction",
      "outputs": [],
      "stateMutability": "payable",
      "type": "function",
      "payable": true
    },
    {
      "inputs": [
        {
          "internalType": "bytes32",
          "name": "productId",
          "type": "bytes32"
        }
      ],
      "name": "sellAuction",
      "outputs": [],
      "stateMutability": "payable",
      "type": "function",
      "payable": true
    }
  ],
  "bytecode": "0x608060405234801561001057600080fd5b50612b2e806100206000396000f3fe60806040526004361061007b5760003560e01c80634bdafacf1161004e5780634bdafacf1461011e578063e1bc09291461013a578063fbf3c5d814610177578063fdca4ca3146101b45761007b565b806301cecd14146100805780630db6d4ac146100a9578063201bbdbe146100c5578063497ecfc514610102575b600080fd5b34801561008c57600080fd5b506100a760048036038101906100a29190611f5e565b6101df565b005b6100c360048036038101906100be9190611f35565b610678565b005b3480156100d157600080fd5b506100ec60048036038101906100e79190611f35565b610941565b6040516100f991906128f9565b60405180910390f35b61011c60048036038101906101179190611f35565b6109da565b005b61013860048036038101906101339190611f35565b610dbf565b005b34801561014657600080fd5b50610161600480360381019061015c9190611f35565b611063565b60405161016e9190612914565b60405180910390f35b34801561018357600080fd5b5061019e60048036038101906101999190611ff1565b611359565b6040516101ab9190612750565b60405180910390f35b3480156101c057600080fd5b506101c961137a565b6040516101d6919061272e565b60405180910390f35b60008484836040516020016101f6939291906126f9565b60405160208183030381529060405280519060200120905060008082815260200190815260200160002060090160009054906101000a900460ff1615610271576040517f08c379a000000000000000000000000000000000000000000000000000000000815260040161026890612819565b60405180910390fd5b610279611ca7565b6040518060600160405280600073ffffffffffffffffffffffffffffffffffffffff16815260200160008152602001600081525090506102b7611cde565b604051806101200160405280848152602001888152602001878152602001868152602001858152602001600081526020018381526020016001151581526020013373ffffffffffffffffffffffffffffffffffffffff1681525090508060008085815260200190815260200160002060008201518160000155602082015181600101908051906020019061034c929190611d4b565b506040820151816002019080519060200190610369929190611d4b565b50606082015181600301556080820151816004015560a0820151816005015560c08201518160060160008201518160000160006101000a81548173ffffffffffffffffffffffffffffffffffffffff021916908373ffffffffffffffffffffffffffffffffffffffff1602179055506020820151816001015560408201518160020155505060e08201518160090160006101000a81548160ff0219169083151502179055506101008201518160090160016101000a81548173ffffffffffffffffffffffffffffffffffffffff021916908373ffffffffffffffffffffffffffffffffffffffff160217905550905050600260003373ffffffffffffffffffffffffffffffffffffffff1673ffffffffffffffffffffffffffffffffffffffff1681526020019081526020016000208190806001815401808255809150506001900390600052602060002090600a02016000909190919091506000820151816000015560208201518160010190805190602001906104e8929190611d4b565b506040820151816002019080519060200190610505929190611d4b565b50606082015181600301556080820151816004015560a0820151816005015560c08201518160060160008201518160000160006101000a81548173ffffffffffffffffffffffffffffffffffffffff021916908373ffffffffffffffffffffffffffffffffffffffff1602179055506020820151816001015560408201518160020155505060e08201518160090160006101000a81548160ff0219169083151502179055506101008201518160090160016101000a81548173ffffffffffffffffffffffffffffffffffffffff021916908373ffffffffffffffffffffffffffffffffffffffff160217905550505060018390806001815401808255809150506001900390600052602060002001600090919091909150553373ffffffffffffffffffffffffffffffffffffffff167fc8890bc2a29e1faed53da248b1c27892231cdee40749ba9b97f7227c6f4129088489896040516106679392919061276b565b60405180910390a250505050505050565b6000600260003373ffffffffffffffffffffffffffffffffffffffff1673ffffffffffffffffffffffffffffffffffffffff16815260200190815260200160002080549050116106c757600080fd5b60008060008381526020019081526020016000209050806004015442106106ed57600080fd5b8060090160019054906101000a900473ffffffffffffffffffffffffffffffffffffffff1673ffffffffffffffffffffffffffffffffffffffff163373ffffffffffffffffffffffffffffffffffffffff161461077f576040517f08c379a000000000000000000000000000000000000000000000000000000000815260040161077690612839565b60405180910390fd5b600073ffffffffffffffffffffffffffffffffffffffff168160060160000160009054906101000a900473ffffffffffffffffffffffffffffffffffffffff1673ffffffffffffffffffffffffffffffffffffffff161415610816576040517f08c379a000000000000000000000000000000000000000000000000000000000815260040161080d90612879565b60405180910390fd5b60008060008481526020019081526020016000206006016001015490503373ffffffffffffffffffffffffffffffffffffffff166108fc829081150290604051600060405180830381858888f19350505050158015610879573d6000803e3d6000fd5b50600080600085815260200190815260200160002060060160000160009054906101000a900473ffffffffffffffffffffffffffffffffffffffff1673ffffffffffffffffffffffffffffffffffffffff1690506108d6846116c7565b8073ffffffffffffffffffffffffffffffffffffffff163373ffffffffffffffffffffffffffffffffffffffff167f426cd7ebf64b01a0ec86194e75d0bc351f5e1d9e74a601524fb7eb802c125068846040516109339190612936565b60405180910390a350505050565b610949611ca7565b6000808381526020019081526020016000206006016040518060600160405290816000820160009054906101000a900473ffffffffffffffffffffffffffffffffffffffff1673ffffffffffffffffffffffffffffffffffffffff1673ffffffffffffffffffffffffffffffffffffffff168152602001600182015481526020016002820154815250509050919050565b80600080600083815260200190815260200160002090508060090160009054906101000a900460ff16610a42576040517f08c379a0000000000000000000000000000000000000000000000000000000008152600401610a39906127d9565b60405180910390fd5b80600401544210610a88576040517f08c379a0000000000000000000000000000000000000000000000000000000008152600401610a7f906128d9565b60405180910390fd5b80600601600101543411610ad1576040517f08c379a0000000000000000000000000000000000000000000000000000000008152600401610ac890612899565b60405180910390fd5b8060030154341015610b18576040517f08c379a0000000000000000000000000000000000000000000000000000000008152600401610b0f90612859565b60405180910390fd5b8060090160019054906101000a900473ffffffffffffffffffffffffffffffffffffffff1673ffffffffffffffffffffffffffffffffffffffff163373ffffffffffffffffffffffffffffffffffffffff161415610bab576040517f08c379a0000000000000000000000000000000000000000000000000000000008152600401610ba2906127f9565b60405180910390fd5b60008060008581526020019081526020016000209050610bc9611ca7565b60405180606001604052803373ffffffffffffffffffffffffffffffffffffffff1681526020013481526020014281525090506001826005015410610cee5760008260060160000160009054906101000a900473ffffffffffffffffffffffffffffffffffffffff1673ffffffffffffffffffffffffffffffffffffffff1690506000836006016001015490508173ffffffffffffffffffffffffffffffffffffffff166108fc829081150290604051600060405180830381858888f19350505050158015610c9c573d6000803e3d6000fd5b508173ffffffffffffffffffffffffffffffffffffffff167f4d6bca05efc4f82cbc52df5a45dbc024f8da3c842184303fffd632c996de144a88604051610ce39190612750565b60405180910390a250505b808260060160008201518160000160006101000a81548173ffffffffffffffffffffffffffffffffffffffff021916908373ffffffffffffffffffffffffffffffffffffffff160217905550602082015181600101556040820151816002015590505060018260050160008282540192505081905550806000015173ffffffffffffffffffffffffffffffffffffffff167f11034bf5a8999be1961a6eb59ebc62f2b0ad67cfdc04a45e152332b99977e3918634604051610db09291906127b0565b60405180910390a25050505050565b6000600260003373ffffffffffffffffffffffffffffffffffffffff1673ffffffffffffffffffffffffffffffffffffffff1681526020019081526020016000208054905011610e0e57600080fd5b600080600083815260200190815260200160002090508060040154421015610e3557600080fd5b8060090160019054906101000a900473ffffffffffffffffffffffffffffffffffffffff1673ffffffffffffffffffffffffffffffffffffffff163373ffffffffffffffffffffffffffffffffffffffff1614610ec7576040517f08c379a0000000000000000000000000000000000000000000000000000000008152600401610ebe906128b9565b60405180910390fd5b600073ffffffffffffffffffffffffffffffffffffffff168160060160000160009054906101000a900473ffffffffffffffffffffffffffffffffffffffff1673ffffffffffffffffffffffffffffffffffffffff16146110085760008160060160010154905060008260060160000160009054906101000a900473ffffffffffffffffffffffffffffffffffffffff1673ffffffffffffffffffffffffffffffffffffffff1690508073ffffffffffffffffffffffffffffffffffffffff166108fc839081150290604051600060405180830381858888f19350505050158015610fb6573d6000803e3d6000fd5b508073ffffffffffffffffffffffffffffffffffffffff167f4d6bca05efc4f82cbc52df5a45dbc024f8da3c842184303fffd632c996de144a85604051610ffd9190612750565b60405180910390a250505b611011826116c7565b3373ffffffffffffffffffffffffffffffffffffffff167f3669e75c00e17b558f06bad1d55afaea2ca57875a9637560540ea8af5a4d67ba836040516110579190612750565b60405180910390a25050565b61106b611cde565b60008083815260200190815260200160002060090160009054906101000a900460ff166110cd576040517f08c379a00000000000000000000000000000000000000000000000000000000081526004016110c4906127d9565b60405180910390fd5b6110d5611cde565b6000808481526020019081526020016000206040518061012001604052908160008201548152602001600182018054600181600116156101000203166002900480601f0160208091040260200160405190810160405280929190818152602001828054600181600116156101000203166002900480156111965780601f1061116b57610100808354040283529160200191611196565b820191906000526020600020905b81548152906001019060200180831161117957829003601f168201915b50505050508152602001600282018054600181600116156101000203166002900480601f0160208091040260200160405190810160405280929190818152602001828054600181600116156101000203166002900480156112385780601f1061120d57610100808354040283529160200191611238565b820191906000526020600020905b81548152906001019060200180831161121b57829003601f168201915b50505050508152602001600382015481526020016004820154815260200160058201548152602001600682016040518060600160405290816000820160009054906101000a900473ffffffffffffffffffffffffffffffffffffffff1673ffffffffffffffffffffffffffffffffffffffff1673ffffffffffffffffffffffffffffffffffffffff1681526020016001820154815260200160028201548152505081526020016009820160009054906101000a900460ff161515151581526020016009820160019054906101000a900473ffffffffffffffffffffffffffffffffffffffff1673ffffffffffffffffffffffffffffffffffffffff1673ffffffffffffffffffffffffffffffffffffffff1681525050905080915050919050565b6001818154811061136657fe5b906000526020600020016000915090505481565b60606000600260003373ffffffffffffffffffffffffffffffffffffffff1673ffffffffffffffffffffffffffffffffffffffff16815260200190815260200160002080549050116113cb57600080fd5b6060600260003373ffffffffffffffffffffffffffffffffffffffff1673ffffffffffffffffffffffffffffffffffffffff168152602001908152602001600020805480602002602001604051908101604052809291908181526020016000905b828210156116ba57838290600052602060002090600a02016040518061012001604052908160008201548152602001600182018054600181600116156101000203166002900480601f0160208091040260200160405190810160405280929190818152602001828054600181600116156101000203166002900480156114f35780601f106114c8576101008083540402835291602001916114f3565b820191906000526020600020905b8154815290600101906020018083116114d657829003601f168201915b50505050508152602001600282018054600181600116156101000203166002900480601f0160208091040260200160405190810160405280929190818152602001828054600181600116156101000203166002900480156115955780601f1061156a57610100808354040283529160200191611595565b820191906000526020600020905b81548152906001019060200180831161157857829003601f168201915b50505050508152602001600382015481526020016004820154815260200160058201548152602001600682016040518060600160405290816000820160009054906101000a900473ffffffffffffffffffffffffffffffffffffffff1673ffffffffffffffffffffffffffffffffffffffff1673ffffffffffffffffffffffffffffffffffffffff1681526020016001820154815260200160028201548152505081526020016009820160009054906101000a900460ff161515151581526020016009820160019054906101000a900473ffffffffffffffffffffffffffffffffffffffff1673ffffffffffffffffffffffffffffffffffffffff1673ffffffffffffffffffffffffffffffffffffffff16815250508152602001906001019061142c565b5050505090508091505090565b6000808281526020019081526020016000206000808201600090556001820160006116f29190611dcb565b6002820160006117029190611dcb565b60038201600090556004820160009055600582016000905560068201600080820160006101000a81549073ffffffffffffffffffffffffffffffffffffffff02191690556001820160009055600282016000905550506009820160006101000a81549060ff02191690556009820160016101000a81549073ffffffffffffffffffffffffffffffffffffffff0219169055505060005b60018054905081101561182c5781600182815481106117b357fe5b9060005260206000200154141561181f57600180808054905003815481106117d757fe5b9060005260206000200154600182815481106117ef57fe5b9060005260206000200181905550600180548061180857fe5b600190038181906000526020600020016000905590555b8080600101915050611798565b5060005b600260003373ffffffffffffffffffffffffffffffffffffffff1673ffffffffffffffffffffffffffffffffffffffff16815260200190815260200160002080549050811015611ca35760008083815260200190815260200160002060000154600260003373ffffffffffffffffffffffffffffffffffffffff1673ffffffffffffffffffffffffffffffffffffffff16815260200190815260200160002082815481106118da57fe5b90600052602060002090600a0201600001541415611c9657600260003373ffffffffffffffffffffffffffffffffffffffff1673ffffffffffffffffffffffffffffffffffffffff1681526020019081526020016000206001600260003373ffffffffffffffffffffffffffffffffffffffff1673ffffffffffffffffffffffffffffffffffffffff16815260200190815260200160002080549050038154811061198157fe5b90600052602060002090600a0201600260003373ffffffffffffffffffffffffffffffffffffffff1673ffffffffffffffffffffffffffffffffffffffff16815260200190815260200160002082815481106119d957fe5b90600052602060002090600a02016000820154816000015560018201816001019080546001816001161561010002031660029004611a18929190611e13565b5060028201816002019080546001816001161561010002031660029004611a40929190611e13565b5060038201548160030155600482015481600401556005820154816005015560068201816006016000820160009054906101000a900473ffffffffffffffffffffffffffffffffffffffff168160000160006101000a81548173ffffffffffffffffffffffffffffffffffffffff021916908373ffffffffffffffffffffffffffffffffffffffff160217905550600182015481600101556002820154816002015550506009820160009054906101000a900460ff168160090160006101000a81548160ff0219169083151502179055506009820160019054906101000a900473ffffffffffffffffffffffffffffffffffffffff168160090160016101000a81548173ffffffffffffffffffffffffffffffffffffffff021916908373ffffffffffffffffffffffffffffffffffffffff160217905550905050600260003373ffffffffffffffffffffffffffffffffffffffff1673ffffffffffffffffffffffffffffffffffffffff168152602001908152602001600020805480611bc357fe5b60019003818190600052602060002090600a0201600080820160009055600182016000611bf09190611dcb565b600282016000611c009190611dcb565b60038201600090556004820160009055600582016000905560068201600080820160006101000a81549073ffffffffffffffffffffffffffffffffffffffff02191690556001820160009055600282016000905550506009820160006101000a81549060ff02191690556009820160016101000a81549073ffffffffffffffffffffffffffffffffffffffff0219169055505090555b8080600101915050611830565b5050565b6040518060600160405280600073ffffffffffffffffffffffffffffffffffffffff16815260200160008152602001600081525090565b604051806101200160405280600080191681526020016060815260200160608152602001600081526020016000815260200160008152602001611d1f611ca7565b8152602001600015158152602001600073ffffffffffffffffffffffffffffffffffffffff1681525090565b828054600181600116156101000203166002900490600052602060002090601f016020900481019282601f10611d8c57805160ff1916838001178555611dba565b82800160010185558215611dba579182015b82811115611db9578251825591602001919060010190611d9e565b5b509050611dc79190611e9a565b5090565b50805460018160011615610100020316600290046000825580601f10611df15750611e10565b601f016020900490600052602060002090810190611e0f9190611e9a565b5b50565b828054600181600116156101000203166002900490600052602060002090601f016020900481019282601f10611e4c5780548555611e89565b82800160010185558215611e8957600052602060002091601f016020900482015b82811115611e88578254825591600101919060010190611e6d565b5b509050611e969190611e9a565b5090565b5b80821115611eb3576000816000905550600101611e9b565b5090565b600081359050611ec681612aca565b92915050565b600082601f830112611edd57600080fd5b8135611ef0611eeb8261297e565b612951565b91508082526020830160208301858383011115611f0c57600080fd5b611f17838284612a6d565b50505092915050565b600081359050611f2f81612ae1565b92915050565b600060208284031215611f4757600080fd5b6000611f5584828501611eb7565b91505092915050565b60008060008060808587031215611f7457600080fd5b600085013567ffffffffffffffff811115611f8e57600080fd5b611f9a87828801611ecc565b945050602085013567ffffffffffffffff811115611fb757600080fd5b611fc387828801611ecc565b9350506040611fd487828801611f20565b9250506060611fe587828801611f20565b91505092959194509250565b60006020828403121561200357600080fd5b600061201184828501611f20565b91505092915050565b6000612026838361252a565b905092915050565b61203781612a1b565b82525050565b6000612048826129ba565b61205281856129dd565b935083602082028501612064856129aa565b8060005b858110156120a05784840389528151612081858261201a565b945061208c836129d0565b925060208a01995050600181019050612068565b50829750879550505050505092915050565b6120bb81612a2d565b82525050565b6120ca81612a39565b82525050565b6120d981612a39565b82525050565b60006120ea826129c5565b6120f481856129ee565b9350612104818560208601612a7c565b61210d81612ab9565b840191505092915050565b6000612123826129c5565b61212d81856129ff565b935061213d818560208601612a7c565b61214681612ab9565b840191505092915050565b600061215c826129c5565b6121668185612a10565b9350612176818560208601612a7c565b80840191505092915050565b600061218f6016836129ff565b91507f50726f6475637420646f6573206e6f74206578697374000000000000000000006000830152602082019050919050565b60006121cf6022836129ff565b91507f596f7520617265206e6f7420616c6c6f77656420746f20706c6163652061206260008301527f69640000000000000000000000000000000000000000000000000000000000006020830152604082019050919050565b60006122356016836129ff565b91507f50726f6475637420616c726561647920657869737473000000000000000000006000830152602082019050919050565b60006122756026836129ff565b91507f596f752063616e6e6f74206465636c617265207468652061756374696f6e206160008301527f7320736f6c6400000000000000000000000000000000000000000000000000006020830152604082019050919050565b60006122db6029836129ff565b91507f426964207072696365206d75737420626520686967686572207468616e206c6f60008301527f77657220626f756e6400000000000000000000000000000000000000000000006020830152604082019050919050565b60006123416026836129ff565b91507f596f752063616e6e6f742073656c6c20612070726f647563742077697468206e60008301527f6f206269647300000000000000000000000000000000000000000000000000006020830152604082019050919050565b60006123a76029836129ff565b91507f426964207072696365206d75737420626520686967686572207468616e20637560008301527f7272656e742062696400000000000000000000000000000000000000000000006020830152604082019050919050565b600061240d6027836129ff565b91507f596f752063616e2774206465636c617265207468652061756374696f6e20617360008301527f20636c6f736564000000000000000000000000000000000000000000000000006020830152604082019050919050565b60006124736014836129ff565b91507f41756374696f6e2074696d6520656c61707365640000000000000000000000006000830152602082019050919050565b6060820160008201516124bc600085018261202e565b5060208201516124cf60208501826126c4565b5060408201516124e260408501826126c4565b50505050565b6060820160008201516124fe600085018261202e565b50602082015161251160208501826126c4565b50604082015161252460408501826126c4565b50505050565b60006101608301600083015161254360008601826120c1565b506020830151848203602086015261255b82826120df565b9150506040830151848203604086015261257582826120df565b915050606083015161258a60608601826126c4565b50608083015161259d60808601826126c4565b5060a08301516125b060a08601826126c4565b5060c08301516125c360c08601826124a6565b5060e08301516125d76101208601826120b2565b506101008301516125ec61014086018261202e565b508091505092915050565b60006101608301600083015161261060008601826120c1565b506020830151848203602086015261262882826120df565b9150506040830151848203604086015261264282826120df565b915050606083015161265760608601826126c4565b50608083015161266a60808601826126c4565b5060a083015161267d60a08601826126c4565b5060c083015161269060c08601826124a6565b5060e08301516126a46101208601826120b2565b506101008301516126b961014086018261202e565b508091505092915050565b6126cd81612a63565b82525050565b6126dc81612a63565b82525050565b6126f36126ee82612a63565b612aaf565b82525050565b60006127058286612151565b91506127118285612151565b915061271d82846126e2565b602082019150819050949350505050565b60006020820190508181036000830152612748818461203d565b905092915050565b600060208201905061276560008301846120d0565b92915050565b600060608201905061278060008301866120d0565b81810360208301526127928185612118565b905081810360408301526127a68184612118565b9050949350505050565b60006040820190506127c560008301856120d0565b6127d260208301846126d3565b9392505050565b600060208201905081810360008301526127f281612182565b9050919050565b60006020820190508181036000830152612812816121c2565b9050919050565b6000602082019050818103600083015261283281612228565b9050919050565b6000602082019050818103600083015261285281612268565b9050919050565b60006020820190508181036000830152612872816122ce565b9050919050565b6000602082019050818103600083015261289281612334565b9050919050565b600060208201905081810360008301526128b28161239a565b9050919050565b600060208201905081810360008301526128d281612400565b9050919050565b600060208201905081810360008301526128f281612466565b9050919050565b600060608201905061290e60008301846124e8565b92915050565b6000602082019050818103600083015261292e81846125f7565b905092915050565b600060208201905061294b60008301846126d3565b92915050565b6000604051905081810181811067ffffffffffffffff8211171561297457600080fd5b8060405250919050565b600067ffffffffffffffff82111561299557600080fd5b601f19601f8301169050602081019050919050565b6000819050602082019050919050565b600081519050919050565b600081519050919050565b6000602082019050919050565b600082825260208201905092915050565b600082825260208201905092915050565b600082825260208201905092915050565b600081905092915050565b6000612a2682612a43565b9050919050565b60008115159050919050565b6000819050919050565b600073ffffffffffffffffffffffffffffffffffffffff82169050919050565b6000819050919050565b82818337600083830152505050565b60005b83811015612a9a578082015181840152602081019050612a7f565b83811115612aa9576000848401525b50505050565b6000819050919050565b6000601f19601f8301169050919050565b612ad381612a39565b8114612ade57600080fd5b50565b612aea81612a63565b8114612af557600080fd5b5056fea264697066735822122082ac5d4ffa23b4a574869802bbe3d6e8f82c7c18ea692fc9528536b91c9d77d164736f6c63430007000033",
  "immutableReferences": {},
  "source": "// SPDX-License-Identifier: UNLICENSED\r\npragma solidity ^0.7.0;\r\npragma experimental ABIEncoderV2;\r\nimport \"./Buyers.sol\";\r\nimport \"./Sellers.sol\";\r\n\r\ncontract Products is Buyers, Sellers {\r\n\r\n    mapping(bytes32 => Product) activeProducts;\r\n    bytes32[] public activeProductIds;\r\n    mapping(address => Product[]) private sellerToProduct;\r\n\r\n    modifier onlySellers() \r\n    {\r\n        require(sellerToProduct[msg.sender].length > 0);\r\n        _;\r\n    }\r\n\r\n    modifier isValidBid(bytes32 productId) \r\n    {\r\n        Product storage currentProduct = activeProducts[productId];\r\n        require(currentProduct.isReal, \"Product does not exist\");\r\n        require(block.timestamp < currentProduct.deadline, \"Auction time elapsed\");\r\n        require(msg.value > currentProduct.highestBid.bidPrice, \"Bid price must be higher than current bid\");\r\n        require(msg.value >= currentProduct.lowerBound, \"Bid price must be higher than lower bound\");\r\n        require(msg.sender != currentProduct.seller, \"You are not allowed to place a bid\");\r\n        _;\r\n    }\r\n\r\n    function addProduct(string memory name, string memory description, uint lowerBound, uint deadline) public \r\n    {\r\n        bytes32 productId = keccak256(abi.encodePacked(name, description, deadline));\r\n        require(!activeProducts[productId].isReal, \"Product already exists\");\r\n        Bid memory emptyBid = Bid(address(0), 0, 0);\r\n        Product memory product = Product(productId, name, description, lowerBound, deadline, 0, emptyBid, true, msg.sender);\r\n        activeProducts[productId] = product;\r\n        sellerToProduct[msg.sender].push(product);\r\n        activeProductIds.push(productId);\r\n\r\n        emit ProductLaunchEvent(msg.sender, productId, name, description);\r\n    }\r\n\r\n    function getProductDetailsById(bytes32 productId) public view returns (Product memory)\r\n    {\r\n        require(activeProducts[productId].isReal, \"Product does not exist\");\r\n        \r\n        Product memory product = activeProducts[productId];\r\n        return product;\r\n    }\r\n\r\n    function placeBid(bytes32 productId) public payable isValidBid(productId) \r\n    {\r\n        Product storage currentProduct = activeProducts[productId];\r\n        \r\n        Bid memory newBid = Bid({\r\n            bidder: msg.sender,\r\n            bidPrice: msg.value,\r\n            bidTime: block.timestamp\r\n        });\r\n\r\n        if (currentProduct.noOfBids >= 1) {\r\n            address payable previousBidder = address(uint(currentProduct.highestBid.bidder));   \r\n            uint returnBidAmount = currentProduct.highestBid.bidPrice;\r\n            previousBidder.transfer(returnBidAmount);\r\n\r\n            emit BidFailedEvent(previousBidder, productId);\r\n        }\r\n        \r\n        currentProduct.highestBid = newBid;\r\n        currentProduct.noOfBids += 1;\r\n\r\n        emit BidPlacedEvent(newBid.bidder, productId, msg.value); \r\n    }\r\n\r\n    function getMyProducts() onlySellers public view returns(Product[] memory)  \r\n    {               \r\n        Product[] memory currAll = sellerToProduct[msg.sender];\r\n        return currAll;\r\n     } \r\n\r\n\r\n    function getHighestBid(bytes32 productId) public view returns(Bid memory) \r\n    { \r\n         return activeProducts[productId].highestBid;\r\n    }   \r\n    \r\n    function closeAuction(bytes32 productId) public payable onlySellers() \r\n    {\r\n        Product storage currentProduct = activeProducts[productId];\r\n        require(block.timestamp >= currentProduct.deadline);\r\n        require(msg.sender == currentProduct.seller, \"You can't declare the auction as closed\");\r\n\r\n        if (currentProduct.highestBid.bidder != address(0)) {         \r\n            uint highestBidPrice = currentProduct.highestBid.bidPrice;\r\n            address payable previousBidder = address(uint(currentProduct.highestBid.bidder));   \r\n            previousBidder.transfer(highestBidPrice);\r\n\r\n            emit BidFailedEvent(previousBidder, productId);\r\n        }\r\n        \r\n        removeProduct(productId);\r\n\r\n        emit ProductClosedEvent(msg.sender, productId);\r\n    }\r\n\r\n    function sellAuction(bytes32 productId) public payable onlySellers() \r\n    {\r\n        Product storage currentProduct = activeProducts[productId];\r\n        require(block.timestamp < currentProduct.deadline);\r\n        require(msg.sender == currentProduct.seller, \"You cannot declare the auction as sold\");\r\n        require(currentProduct.highestBid.bidder != address(0), \"You cannot sell a product with no bids\");\r\n\r\n        uint highestBidPrice = activeProducts[productId].highestBid.bidPrice;\r\n        msg.sender.transfer(highestBidPrice);\r\n\r\n        address payable highestBidder = address(uint(activeProducts[productId].highestBid.bidder));\r\n\r\n        removeProduct(productId);\r\n\r\n        emit ProductSoldEvent(msg.sender, highestBidder, highestBidPrice);\r\n\r\n    }\r\n    \r\n    function removeProduct(bytes32 productId) internal \r\n    {\r\n        delete activeProducts[productId];\r\n\r\n        for(uint i = 0; i < activeProductIds.length; i++) {\r\n            if(activeProductIds[i] == productId) {\r\n                activeProductIds[i] = activeProductIds[activeProductIds.length-1];\r\n                activeProductIds.pop();\r\n            }\r\n        }\r\n        \r\n\r\n        for(uint i = 0; i < sellerToProduct[msg.sender].length; i++) {\r\n            if (sellerToProduct[msg.sender][i].id == activeProducts[productId].id) {\r\n                sellerToProduct[msg.sender][i] = sellerToProduct[msg.sender][sellerToProduct[msg.sender].length - 1];\r\n                sellerToProduct[msg.sender].pop();\r\n            }\r\n        }\r\n        \r\n    }\r\n\r\n}",
  "sourcePath": "C:/Users/rsadi/BlockchainAuction/backend/contracts/Products.sol",
  "compiler": {
    "name": "solc",
    "version": "0.7.0+commit.9e61f92b.Emscripten.clang"
  },
  "schemaVersion": "3.3.3",
  "updatedAt": "2020-12-24T15:40:12.718Z",
  "networkType": "ethereum",
  "devdoc": {
    "kind": "dev",
    "methods": {},
    "version": 1
  },
  "userdoc": {
    "kind": "user",
    "methods": {},
    "version": 1
  }
}