{
  "contractName": "Products",
  "abi": [
    {
      "anonymous": false,
      "inputs": [
        {
          "indexed": true,
          "internalType": "address",
          "name": "bidder",
          "type": "address"
        },
        {
          "indexed": false,
          "internalType": "bytes32",
          "name": "productId",
          "type": "bytes32"
        },
        {
          "indexed": false,
          "internalType": "uint256",
          "name": "price",
          "type": "uint256"
        }
      ],
      "name": "BidPlaced",
      "type": "event"
    },
    {
      "anonymous": false,
      "inputs": [
        {
          "indexed": true,
          "internalType": "address",
          "name": "seller",
          "type": "address"
        },
        {
          "indexed": false,
          "internalType": "bytes32",
          "name": "productId",
          "type": "bytes32"
        }
      ],
      "name": "ProductLaunchEvent",
      "type": "event"
    },
    {
      "anonymous": false,
      "inputs": [
        {
          "indexed": true,
          "internalType": "address",
          "name": "seller",
          "type": "address"
        },
        {
          "indexed": true,
          "internalType": "address",
          "name": "buyer",
          "type": "address"
        },
        {
          "indexed": false,
          "internalType": "uint256",
          "name": "price",
          "type": "uint256"
        },
        {
          "indexed": false,
          "internalType": "string",
          "name": "name",
          "type": "string"
        }
      ],
      "name": "ProductSoldEvent",
      "type": "event"
    },
    {
      "inputs": [
        {
          "internalType": "string",
          "name": "name",
          "type": "string"
        },
        {
          "internalType": "string",
          "name": "description",
          "type": "string"
        },
        {
          "internalType": "uint256",
          "name": "lowerBound",
          "type": "uint256"
        },
        {
          "internalType": "uint256",
          "name": "deadline",
          "type": "uint256"
        }
      ],
      "name": "addProduct",
      "outputs": [],
      "stateMutability": "nonpayable",
      "type": "function"
    },
    {
      "inputs": [
        {
          "internalType": "bytes32",
          "name": "id",
          "type": "bytes32"
        }
      ],
      "name": "getProductDetailsById",
      "outputs": [
        {
          "internalType": "string",
          "name": "_name",
          "type": "string"
        },
        {
          "internalType": "string",
          "name": "_description",
          "type": "string"
        },
        {
          "internalType": "uint256",
          "name": "_lowerBound",
          "type": "uint256"
        },
        {
          "internalType": "uint256",
          "name": "_deadline",
          "type": "uint256"
        }
      ],
      "stateMutability": "view",
      "type": "function"
    },
    {
      "inputs": [
        {
          "internalType": "bytes32",
          "name": "productId",
          "type": "bytes32"
        },
        {
          "internalType": "uint256",
          "name": "price",
          "type": "uint256"
        }
      ],
      "name": "placeBid",
      "outputs": [],
      "stateMutability": "payable",
      "type": "function"
    },
    {
      "inputs": [],
      "name": "viewAllActiveProducts",
      "outputs": [
        {
          "components": [
            {
              "internalType": "bytes32",
              "name": "id",
              "type": "bytes32"
            },
            {
              "internalType": "string",
              "name": "name",
              "type": "string"
            },
            {
              "internalType": "string",
              "name": "description",
              "type": "string"
            },
            {
              "internalType": "uint256",
              "name": "lowerBound",
              "type": "uint256"
            },
            {
              "internalType": "uint256",
              "name": "deadline",
              "type": "uint256"
            },
            {
              "internalType": "uint256",
              "name": "noOfBids",
              "type": "uint256"
            },
            {
              "components": [
                {
                  "internalType": "address",
                  "name": "bidder",
                  "type": "address"
                },
                {
                  "internalType": "uint256",
                  "name": "bidPrice",
                  "type": "uint256"
                },
                {
                  "internalType": "uint256",
                  "name": "bidTime",
                  "type": "uint256"
                }
              ],
              "internalType": "struct Structures.Bid",
              "name": "highestBid",
              "type": "tuple"
            },
            {
              "internalType": "bool",
              "name": "isReal",
              "type": "bool"
            }
          ],
          "internalType": "struct Structures.Product[]",
          "name": "",
          "type": "tuple[]"
        }
      ],
      "stateMutability": "view",
      "type": "function"
    },
    {
      "inputs": [
        {
          "internalType": "bytes32",
          "name": "productId",
          "type": "bytes32"
        }
      ],
      "name": "highestBid",
      "outputs": [
        {
          "internalType": "uint256",
          "name": "",
          "type": "uint256"
        }
      ],
      "stateMutability": "view",
      "type": "function"
    }
  ],
  "bytecode": "0x608060405234801561001057600080fd5b506116d9806100206000396000f3fe60806040526004361061004a5760003560e01c806301cecd141461004f57806361508bfd1461007857806365710149146100b5578063bca1aaa3146100e0578063e1bc0929146100fc575b600080fd5b34801561005b57600080fd5b5061007660048036038101906100719190610f18565b61013c565b005b34801561008457600080fd5b5061009f600480360381019061009a9190610eb3565b6104ae565b6040516100ac91906114e1565b60405180910390f35b3480156100c157600080fd5b506100ca6104d0565b6040516100d791906113c3565b60405180910390f35b6100fa60048036038101906100f59190610edc565b610857565b005b34801561010857600080fd5b50610123600480360381019061011e9190610eb3565b610aba565b604051610133949392919061140e565b60405180910390f35b60008484836040516020016101539392919061138e565b604051602081830303815290604052805190602001209050610173610d11565b6040518060600160405280600073ffffffffffffffffffffffffffffffffffffffff16815260200160008152602001600081525090506101b1610d48565b604051806101000160405280848152602001888152602001878152602001868152602001858152602001600081526020018381526020016001151581525090508060008085815260200190815260200160002060008201518160000155602082015181600101908051906020019061022a929190610d98565b506040820151816002019080519060200190610247929190610d98565b50606082015181600301556080820151816004015560a0820151816005015560c08201518160060160008201518160000160006101000a81548173ffffffffffffffffffffffffffffffffffffffff021916908373ffffffffffffffffffffffffffffffffffffffff1602179055506020820151816001015560408201518160020155505060e08201518160090160006101000a81548160ff02191690831515021790555090505080600260003373ffffffffffffffffffffffffffffffffffffffff1673ffffffffffffffffffffffffffffffffffffffff168152602001908152602001600020600260003373ffffffffffffffffffffffffffffffffffffffff1673ffffffffffffffffffffffffffffffffffffffff168152602001908152602001600020805490508154811061037c57fe5b90600052602060002090600a02016000820151816000015560208201518160010190805190602001906103b0929190610d98565b5060408201518160020190805190602001906103cd929190610d98565b50606082015181600301556080820151816004015560a0820151816005015560c08201518160060160008201518160000160006101000a81548173ffffffffffffffffffffffffffffffffffffffff021916908373ffffffffffffffffffffffffffffffffffffffff1602179055506020820151816001015560408201518160020155505060e08201518160090160006101000a81548160ff0219169083151502179055509050508260016003548154811061048557fe5b906000526020600020018190555060036000815480929190600101919050555050505050505050565b6000806000838152602001908152602001600020600601600101549050919050565b60606000600260003373ffffffffffffffffffffffffffffffffffffffff1673ffffffffffffffffffffffffffffffffffffffff168152602001908152602001600020805490501161052157600080fd5b6060600260003373ffffffffffffffffffffffffffffffffffffffff1673ffffffffffffffffffffffffffffffffffffffff168152602001908152602001600020805480602002602001604051908101604052809291908181526020016000905b828210156107ba57838290600052602060002090600a02016040518061010001604052908160008201548152602001600182018054600181600116156101000203166002900480601f0160208091040260200160405190810160405280929190818152602001828054600181600116156101000203166002900480156106495780601f1061061e57610100808354040283529160200191610649565b820191906000526020600020905b81548152906001019060200180831161062c57829003601f168201915b50505050508152602001600282018054600181600116156101000203166002900480601f0160208091040260200160405190810160405280929190818152602001828054600181600116156101000203166002900480156106eb5780601f106106c0576101008083540402835291602001916106eb565b820191906000526020600020905b8154815290600101906020018083116106ce57829003601f168201915b50505050508152602001600382015481526020016004820154815260200160058201548152602001600682016040518060600160405290816000820160009054906101000a900473ffffffffffffffffffffffffffffffffffffffff1673ffffffffffffffffffffffffffffffffffffffff1673ffffffffffffffffffffffffffffffffffffffff1681526020016001820154815260200160028201548152505081526020016009820160009054906101000a900460ff16151515158152505081526020019060010190610582565b50505050905060606000805b835181101561084d576000808583815181106107de57fe5b602002602001015160000151815260200190815260200160002060090160009054906101000a900460ff16156108405783818151811061081a57fe5b602002602001015183838151811061082e57fe5b60200260200101819052506001820191505b80806001019150506107c6565b5081935050505090565b8181600080600084815260200190815260200160002090508060090160009054906101000a900460ff166108c0576040517f08c379a00000000000000000000000000000000000000000000000000000000081526004016108b790611461565b60405180910390fd5b80600401544210610906576040517f08c379a00000000000000000000000000000000000000000000000000000000081526004016108fd906114c1565b60405180910390fd5b8060060160010154821161094f576040517f08c379a0000000000000000000000000000000000000000000000000000000008152600401610946906114a1565b60405180910390fd5b8060030154821015610996576040517f08c379a000000000000000000000000000000000000000000000000000000000815260040161098d90611481565b60405180910390fd5b600080600087815260200190815260200160002090506109b4610d11565b60405180606001604052803373ffffffffffffffffffffffffffffffffffffffff168152602001348152602001428152509050808260060160008201518160000160006101000a81548173ffffffffffffffffffffffffffffffffffffffff021916908373ffffffffffffffffffffffffffffffffffffffff160217905550602082015181600101556040820151816002015590505060018260050160008282540192505081905550806000015173ffffffffffffffffffffffffffffffffffffffff167fe4a81d118d35683a4504cbe9eca1a0dd6e2f0003e876407a80a0380de45e305f8888604051610aa99291906113e5565b60405180910390a250505050505050565b606080600080610ac8610d48565b6000808781526020019081526020016000206040518061010001604052908160008201548152602001600182018054600181600116156101000203166002900480601f016020809104026020016040519081016040528092919081815260200182805460018160011615610100020316600290048015610b895780601f10610b5e57610100808354040283529160200191610b89565b820191906000526020600020905b815481529060010190602001808311610b6c57829003601f168201915b50505050508152602001600282018054600181600116156101000203166002900480601f016020809104026020016040519081016040528092919081815260200182805460018160011615610100020316600290048015610c2b5780601f10610c0057610100808354040283529160200191610c2b565b820191906000526020600020905b815481529060010190602001808311610c0e57829003601f168201915b50505050508152602001600382015481526020016004820154815260200160058201548152602001600682016040518060600160405290816000820160009054906101000a900473ffffffffffffffffffffffffffffffffffffffff1673ffffffffffffffffffffffffffffffffffffffff1673ffffffffffffffffffffffffffffffffffffffff1681526020016001820154815260200160028201548152505081526020016009820160009054906101000a900460ff161515151581525050905080602001519450806040015193508060600151925080608001519150509193509193565b6040518060600160405280600073ffffffffffffffffffffffffffffffffffffffff16815260200160008152602001600081525090565b604051806101000160405280600080191681526020016060815260200160608152602001600081526020016000815260200160008152602001610d89610d11565b81526020016000151581525090565b828054600181600116156101000203166002900490600052602060002090601f016020900481019282601f10610dd957805160ff1916838001178555610e07565b82800160010185558215610e07579182015b82811115610e06578251825591602001919060010190610deb565b5b509050610e149190610e18565b5090565b5b80821115610e31576000816000905550600101610e19565b5090565b600081359050610e4481611675565b92915050565b600082601f830112610e5b57600080fd5b8135610e6e610e6982611529565b6114fc565b91508082526020830160208301858383011115610e8a57600080fd5b610e95838284611618565b50505092915050565b600081359050610ead8161168c565b92915050565b600060208284031215610ec557600080fd5b6000610ed384828501610e35565b91505092915050565b60008060408385031215610eef57600080fd5b6000610efd85828601610e35565b9250506020610f0e85828601610e9e565b9150509250929050565b60008060008060808587031215610f2e57600080fd5b600085013567ffffffffffffffff811115610f4857600080fd5b610f5487828801610e4a565b945050602085013567ffffffffffffffff811115610f7157600080fd5b610f7d87828801610e4a565b9350506040610f8e87828801610e9e565b9250506060610f9f87828801610e9e565b91505092959194509250565b6000610fb783836112a1565b905092915050565b610fc8816115c6565b82525050565b6000610fd982611565565b610fe38185611588565b935083602082028501610ff585611555565b8060005b8581101561103157848403895281516110128582610fab565b945061101d8361157b565b925060208a01995050600181019050610ff9565b50829750879550505050505092915050565b61104c816115d8565b82525050565b61105b816115e4565b82525050565b61106a816115e4565b82525050565b600061107b82611570565b6110858185611599565b9350611095818560208601611627565b61109e81611664565b840191505092915050565b60006110b482611570565b6110be81856115aa565b93506110ce818560208601611627565b6110d781611664565b840191505092915050565b60006110ed82611570565b6110f781856115bb565b9350611107818560208601611627565b80840191505092915050565b60006111206016836115aa565b91507f50726f6475637420646f6573206e6f74206578697374000000000000000000006000830152602082019050919050565b60006111606029836115aa565b91507f426964207072696365206d75737420626520686967686572207468616e206c6f60008301527f77657220626f756e6400000000000000000000000000000000000000000000006020830152604082019050919050565b60006111c66029836115aa565b91507f426964207072696365206d75737420626520686967686572207468616e20637560008301527f7272656e742062696400000000000000000000000000000000000000000000006020830152604082019050919050565b600061122c6014836115aa565b91507f41756374696f6e2074696d6520656c61707365640000000000000000000000006000830152602082019050919050565b6060820160008201516112756000850182610fbf565b5060208201516112886020850182611359565b50604082015161129b6040850182611359565b50505050565b6000610140830160008301516112ba6000860182611052565b50602083015184820360208601526112d28282611070565b915050604083015184820360408601526112ec8282611070565b91505060608301516113016060860182611359565b5060808301516113146080860182611359565b5060a083015161132760a0860182611359565b5060c083015161133a60c086018261125f565b5060e083015161134e610120860182611043565b508091505092915050565b6113628161160e565b82525050565b6113718161160e565b82525050565b6113886113838261160e565b61165a565b82525050565b600061139a82866110e2565b91506113a682856110e2565b91506113b28284611377565b602082019150819050949350505050565b600060208201905081810360008301526113dd8184610fce565b905092915050565b60006040820190506113fa6000830185611061565b6114076020830184611368565b9392505050565b6000608082019050818103600083015261142881876110a9565b9050818103602083015261143c81866110a9565b905061144b6040830185611368565b6114586060830184611368565b95945050505050565b6000602082019050818103600083015261147a81611113565b9050919050565b6000602082019050818103600083015261149a81611153565b9050919050565b600060208201905081810360008301526114ba816111b9565b9050919050565b600060208201905081810360008301526114da8161121f565b9050919050565b60006020820190506114f66000830184611368565b92915050565b6000604051905081810181811067ffffffffffffffff8211171561151f57600080fd5b8060405250919050565b600067ffffffffffffffff82111561154057600080fd5b601f19601f8301169050602081019050919050565b6000819050602082019050919050565b600081519050919050565b600081519050919050565b6000602082019050919050565b600082825260208201905092915050565b600082825260208201905092915050565b600082825260208201905092915050565b600081905092915050565b60006115d1826115ee565b9050919050565b60008115159050919050565b6000819050919050565b600073ffffffffffffffffffffffffffffffffffffffff82169050919050565b6000819050919050565b82818337600083830152505050565b60005b8381101561164557808201518184015260208101905061162a565b83811115611654576000848401525b50505050565b6000819050919050565b6000601f19601f8301169050919050565b61167e816115e4565b811461168957600080fd5b50565b6116958161160e565b81146116a057600080fd5b5056fea2646970667358221220fa32c19a619d6b7711b72d2ce6753ea1f783ff7f247627e119d722a96815915064736f6c63430007000033",
  "source": "// SPDX-License-Identifier: UNLICENSED\r\npragma solidity ^0.7.0;\r\npragma experimental ABIEncoderV2;\r\nimport \"./Buyers.sol\";\r\nimport \"./Sellers.sol\";\r\n\r\ncontract Products is Buyers,Sellers { //TODO: import new holder contract (contains Seller and Buyer)\r\n\r\n    mapping(bytes32 => Product) activeProducts;\r\n    bytes32[] activeProductIds;\r\n    mapping(address => Product[]) private sellerToProduct;\r\n    uint numOfProducts;\r\n\r\n    function addProduct(string memory name, string memory description, uint lowerBound, uint deadline) public {\r\n        bytes32 productID = keccak256(abi.encodePacked(name, description, deadline));\r\n        Bid memory emptyBid = Bid(address(0), 0, 0);\r\n        Product memory product = Product(productID, name, description, lowerBound, deadline, 0, emptyBid, true);\r\n        activeProducts[productID] = product;\r\n        sellerToProduct[msg.sender][sellerToProduct[msg.sender].length] = product;\r\n        activeProductIds[numOfProducts] = productID;\r\n        numOfProducts++;\r\n    }\r\n\r\n    function getProductDetailsById(bytes32 id) public view returns \r\n        (string memory _name, string memory _description, uint _lowerBound, uint _deadline) \r\n    {\r\n        Product memory product = activeProducts[id];\r\n        _name = product.name;\r\n        _description = product.description;\r\n        _lowerBound = product.lowerBound;\r\n        _deadline = product.deadline;\r\n    }\r\n\r\n    modifier isValidBid(bytes32 productId, uint price) {\r\n        Product storage currentProduct = activeProducts[productId];\r\n        require(currentProduct.isReal, \"Product does not exist\");\r\n        require(block.timestamp < currentProduct.deadline, \"Auction time elapsed\");\r\n        require(price > currentProduct.highestBid.bidPrice, \"Bid price must be higher than current bid\");\r\n        require(price >= currentProduct.lowerBound, \"Bid price must be higher than lower bound\");\r\n        _;\r\n    }\r\n\r\n    function placeBid(bytes32 productId, uint price) public payable isValidBid(productId, price) {\r\n        Product storage currentProduct = activeProducts[productId];\r\n        \r\n        Bid memory newBid = Bid({\r\n            bidder: msg.sender,\r\n            bidPrice: msg.value,\r\n            bidTime: block.timestamp\r\n        });\r\n\r\n        currentProduct.highestBid = newBid;\r\n        currentProduct.noOfBids += 1;\r\n\r\n        emit BidPlaced(newBid.bidder, productId, price); \r\n    }\r\n    \r\n    modifier onlySellers() {\r\n        require(sellerToProduct[msg.sender].length > 0 );\r\n        _;\r\n    }\r\n\r\n    function viewAllActiveProducts() onlySellers public view returns(Product[] memory)  { //add modifier Seller               \r\n         Product[] memory currAll = sellerToProduct[msg.sender] ;\r\n         Product[] memory currActive;\r\n\r\n         uint index = 0;\r\n         for(uint i = 0 ; i<currAll.length; i++) {\r\n            if(activeProducts[currAll[i].id].isReal){\r\n               currActive[index] = currAll[i];\r\n               index += 1;\r\n            }\r\n         }\r\n         return currActive;\r\n     } \r\n\r\n\r\n    function highestBid(bytes32 productId) public view returns(uint) { \r\n         return activeProducts[productId].highestBid.bidPrice;\r\n    }   \r\n    \r\n}\r\n",
  "sourcePath": "C:/Users/leahr/BlockchainAuction/backend/contracts/Products.sol",
  "compiler": {
    "name": "solc",
    "version": "0.7.0+commit.9e61f92b.Emscripten.clang"
  },
  "schemaVersion": "3.0.20",
  "updatedAt": "2020-12-18T14:17:27.393Z",
  "devdoc": {
    "kind": "dev",
    "methods": {},
    "version": 1
  },
  "userdoc": {
    "kind": "user",
    "methods": {},
    "version": 1
  }
}