{
  "contractName": "Products",
  "abi": [
    {
      "anonymous": false,
      "inputs": [
        {
          "indexed": true,
          "internalType": "address",
          "name": "bidder",
          "type": "address"
        },
        {
          "indexed": false,
          "internalType": "bytes32",
          "name": "productId",
          "type": "bytes32"
        },
        {
          "indexed": false,
          "internalType": "uint256",
          "name": "price",
          "type": "uint256"
        }
      ],
      "name": "BidPlacedEvent",
      "type": "event"
    },
    {
      "anonymous": false,
      "inputs": [
        {
          "indexed": true,
          "internalType": "address",
          "name": "seller",
          "type": "address"
        },
        {
          "indexed": false,
          "internalType": "bytes32",
          "name": "productId",
          "type": "bytes32"
        }
      ],
      "name": "ProductLaunchEvent",
      "type": "event"
    },
    {
      "anonymous": false,
      "inputs": [
        {
          "indexed": true,
          "internalType": "address",
          "name": "seller",
          "type": "address"
        },
        {
          "indexed": true,
          "internalType": "address",
          "name": "buyer",
          "type": "address"
        },
        {
          "indexed": false,
          "internalType": "uint256",
          "name": "price",
          "type": "uint256"
        },
        {
          "indexed": false,
          "internalType": "string",
          "name": "name",
          "type": "string"
        }
      ],
      "name": "ProductSoldEvent",
      "type": "event"
    },
    {
      "inputs": [
        {
          "internalType": "string",
          "name": "name",
          "type": "string"
        },
        {
          "internalType": "string",
          "name": "description",
          "type": "string"
        },
        {
          "internalType": "uint256",
          "name": "lowerBound",
          "type": "uint256"
        },
        {
          "internalType": "uint256",
          "name": "deadline",
          "type": "uint256"
        }
      ],
      "name": "addProduct",
      "outputs": [],
      "stateMutability": "nonpayable",
      "type": "function"
    },
    {
      "inputs": [
        {
          "internalType": "bytes32",
          "name": "id",
          "type": "bytes32"
        }
      ],
      "name": "getProductDetailsById",
      "outputs": [
        {
          "internalType": "string",
          "name": "_name",
          "type": "string"
        },
        {
          "internalType": "string",
          "name": "_description",
          "type": "string"
        },
        {
          "internalType": "uint256",
          "name": "_lowerBound",
          "type": "uint256"
        },
        {
          "internalType": "uint256",
          "name": "_deadline",
          "type": "uint256"
        }
      ],
      "stateMutability": "view",
      "type": "function"
    },
    {
      "inputs": [
        {
          "internalType": "bytes32",
          "name": "productId",
          "type": "bytes32"
        },
        {
          "internalType": "uint256",
          "name": "price",
          "type": "uint256"
        }
      ],
      "name": "placeBid",
      "outputs": [],
      "stateMutability": "nonpayable",
      "type": "function"
    },
    {
      "inputs": [],
      "name": "viewAllActiveProducts",
      "outputs": [
        {
          "components": [
            {
              "internalType": "bytes32",
              "name": "id",
              "type": "bytes32"
            },
            {
              "internalType": "string",
              "name": "name",
              "type": "string"
            },
            {
              "internalType": "string",
              "name": "description",
              "type": "string"
            },
            {
              "internalType": "uint256",
              "name": "lowerBound",
              "type": "uint256"
            },
            {
              "internalType": "uint256",
              "name": "deadline",
              "type": "uint256"
            },
            {
              "internalType": "uint256",
              "name": "noOfBids",
              "type": "uint256"
            },
            {
              "components": [
                {
                  "internalType": "address",
                  "name": "bidder",
                  "type": "address"
                },
                {
                  "internalType": "uint256",
                  "name": "bidPrice",
                  "type": "uint256"
                },
                {
                  "internalType": "uint256",
                  "name": "bidTime",
                  "type": "uint256"
                }
              ],
              "internalType": "struct Structures.Bid",
              "name": "highestBid",
              "type": "tuple"
            },
            {
              "internalType": "bool",
              "name": "isReal",
              "type": "bool"
            }
          ],
          "internalType": "struct Structures.Product[]",
          "name": "",
          "type": "tuple[]"
        }
      ],
      "stateMutability": "view",
      "type": "function"
    },
    {
      "inputs": [
        {
          "internalType": "bytes32",
          "name": "productId",
          "type": "bytes32"
        }
      ],
      "name": "highestBid",
      "outputs": [
        {
          "internalType": "uint256",
          "name": "",
          "type": "uint256"
        }
      ],
      "stateMutability": "view",
      "type": "function"
    }
  ],
  "bytecode": "0x608060405234801561001057600080fd5b506116b2806100206000396000f3fe608060405234801561001057600080fd5b50600436106100575760003560e01c806301cecd141461005c57806361508bfd1461007857806365710149146100a8578063bca1aaa3146100c6578063e1bc0929146100e2575b600080fd5b61007660048036038101906100719190610ef1565b610115565b005b610092600480360381019061008d9190610e8c565b610487565b60405161009f91906114ba565b60405180910390f35b6100b06104a9565b6040516100bd919061139c565b60405180910390f35b6100e060048036038101906100db9190610eb5565b610830565b005b6100fc60048036038101906100f79190610e8c565b610a93565b60405161010c94939291906113e7565b60405180910390f35b600084848360405160200161012c93929190611367565b60405160208183030381529060405280519060200120905061014c610cea565b6040518060600160405280600073ffffffffffffffffffffffffffffffffffffffff168152602001600081526020016000815250905061018a610d21565b6040518061010001604052808481526020018881526020018781526020018681526020018581526020016000815260200183815260200160011515815250905080600080858152602001908152602001600020600082015181600001556020820151816001019080519060200190610203929190610d71565b506040820151816002019080519060200190610220929190610d71565b50606082015181600301556080820151816004015560a0820151816005015560c08201518160060160008201518160000160006101000a81548173ffffffffffffffffffffffffffffffffffffffff021916908373ffffffffffffffffffffffffffffffffffffffff1602179055506020820151816001015560408201518160020155505060e08201518160090160006101000a81548160ff02191690831515021790555090505080600260003373ffffffffffffffffffffffffffffffffffffffff1673ffffffffffffffffffffffffffffffffffffffff168152602001908152602001600020600260003373ffffffffffffffffffffffffffffffffffffffff1673ffffffffffffffffffffffffffffffffffffffff168152602001908152602001600020805490508154811061035557fe5b90600052602060002090600a0201600082015181600001556020820151816001019080519060200190610389929190610d71565b5060408201518160020190805190602001906103a6929190610d71565b50606082015181600301556080820151816004015560a0820151816005015560c08201518160060160008201518160000160006101000a81548173ffffffffffffffffffffffffffffffffffffffff021916908373ffffffffffffffffffffffffffffffffffffffff1602179055506020820151816001015560408201518160020155505060e08201518160090160006101000a81548160ff0219169083151502179055509050508260016003548154811061045e57fe5b906000526020600020018190555060036000815480929190600101919050555050505050505050565b6000806000838152602001908152602001600020600601600101549050919050565b60606000600260003373ffffffffffffffffffffffffffffffffffffffff1673ffffffffffffffffffffffffffffffffffffffff16815260200190815260200160002080549050116104fa57600080fd5b6060600260003373ffffffffffffffffffffffffffffffffffffffff1673ffffffffffffffffffffffffffffffffffffffff168152602001908152602001600020805480602002602001604051908101604052809291908181526020016000905b8282101561079357838290600052602060002090600a02016040518061010001604052908160008201548152602001600182018054600181600116156101000203166002900480601f0160208091040260200160405190810160405280929190818152602001828054600181600116156101000203166002900480156106225780601f106105f757610100808354040283529160200191610622565b820191906000526020600020905b81548152906001019060200180831161060557829003601f168201915b50505050508152602001600282018054600181600116156101000203166002900480601f0160208091040260200160405190810160405280929190818152602001828054600181600116156101000203166002900480156106c45780601f10610699576101008083540402835291602001916106c4565b820191906000526020600020905b8154815290600101906020018083116106a757829003601f168201915b50505050508152602001600382015481526020016004820154815260200160058201548152602001600682016040518060600160405290816000820160009054906101000a900473ffffffffffffffffffffffffffffffffffffffff1673ffffffffffffffffffffffffffffffffffffffff1673ffffffffffffffffffffffffffffffffffffffff1681526020016001820154815260200160028201548152505081526020016009820160009054906101000a900460ff1615151515815250508152602001906001019061055b565b50505050905060606000805b8351811015610826576000808583815181106107b757fe5b602002602001015160000151815260200190815260200160002060090160009054906101000a900460ff1615610819578381815181106107f357fe5b602002602001015183838151811061080757fe5b60200260200101819052506001820191505b808060010191505061079f565b5081935050505090565b8181600080600084815260200190815260200160002090508060090160009054906101000a900460ff16610899576040517f08c379a00000000000000000000000000000000000000000000000000000000081526004016108909061143a565b60405180910390fd5b806004015442106108df576040517f08c379a00000000000000000000000000000000000000000000000000000000081526004016108d69061149a565b60405180910390fd5b80600601600101548211610928576040517f08c379a000000000000000000000000000000000000000000000000000000000815260040161091f9061147a565b60405180910390fd5b806003015482101561096f576040517f08c379a00000000000000000000000000000000000000000000000000000000081526004016109669061145a565b60405180910390fd5b6000806000878152602001908152602001600020905061098d610cea565b60405180606001604052803373ffffffffffffffffffffffffffffffffffffffff168152602001878152602001428152509050808260060160008201518160000160006101000a81548173ffffffffffffffffffffffffffffffffffffffff021916908373ffffffffffffffffffffffffffffffffffffffff160217905550602082015181600101556040820151816002015590505060018260050160008282540192505081905550806000015173ffffffffffffffffffffffffffffffffffffffff167f11034bf5a8999be1961a6eb59ebc62f2b0ad67cfdc04a45e152332b99977e3918888604051610a829291906113be565b60405180910390a250505050505050565b606080600080610aa1610d21565b6000808781526020019081526020016000206040518061010001604052908160008201548152602001600182018054600181600116156101000203166002900480601f016020809104026020016040519081016040528092919081815260200182805460018160011615610100020316600290048015610b625780601f10610b3757610100808354040283529160200191610b62565b820191906000526020600020905b815481529060010190602001808311610b4557829003601f168201915b50505050508152602001600282018054600181600116156101000203166002900480601f016020809104026020016040519081016040528092919081815260200182805460018160011615610100020316600290048015610c045780601f10610bd957610100808354040283529160200191610c04565b820191906000526020600020905b815481529060010190602001808311610be757829003601f168201915b50505050508152602001600382015481526020016004820154815260200160058201548152602001600682016040518060600160405290816000820160009054906101000a900473ffffffffffffffffffffffffffffffffffffffff1673ffffffffffffffffffffffffffffffffffffffff1673ffffffffffffffffffffffffffffffffffffffff1681526020016001820154815260200160028201548152505081526020016009820160009054906101000a900460ff161515151581525050905080602001519450806040015193508060600151925080608001519150509193509193565b6040518060600160405280600073ffffffffffffffffffffffffffffffffffffffff16815260200160008152602001600081525090565b604051806101000160405280600080191681526020016060815260200160608152602001600081526020016000815260200160008152602001610d62610cea565b81526020016000151581525090565b828054600181600116156101000203166002900490600052602060002090601f016020900481019282601f10610db257805160ff1916838001178555610de0565b82800160010185558215610de0579182015b82811115610ddf578251825591602001919060010190610dc4565b5b509050610ded9190610df1565b5090565b5b80821115610e0a576000816000905550600101610df2565b5090565b600081359050610e1d8161164e565b92915050565b600082601f830112610e3457600080fd5b8135610e47610e4282611502565b6114d5565b91508082526020830160208301858383011115610e6357600080fd5b610e6e8382846115f1565b50505092915050565b600081359050610e8681611665565b92915050565b600060208284031215610e9e57600080fd5b6000610eac84828501610e0e565b91505092915050565b60008060408385031215610ec857600080fd5b6000610ed685828601610e0e565b9250506020610ee785828601610e77565b9150509250929050565b60008060008060808587031215610f0757600080fd5b600085013567ffffffffffffffff811115610f2157600080fd5b610f2d87828801610e23565b945050602085013567ffffffffffffffff811115610f4a57600080fd5b610f5687828801610e23565b9350506040610f6787828801610e77565b9250506060610f7887828801610e77565b91505092959194509250565b6000610f90838361127a565b905092915050565b610fa18161159f565b82525050565b6000610fb28261153e565b610fbc8185611561565b935083602082028501610fce8561152e565b8060005b8581101561100a5784840389528151610feb8582610f84565b9450610ff683611554565b925060208a01995050600181019050610fd2565b50829750879550505050505092915050565b611025816115b1565b82525050565b611034816115bd565b82525050565b611043816115bd565b82525050565b600061105482611549565b61105e8185611572565b935061106e818560208601611600565b6110778161163d565b840191505092915050565b600061108d82611549565b6110978185611583565b93506110a7818560208601611600565b6110b08161163d565b840191505092915050565b60006110c682611549565b6110d08185611594565b93506110e0818560208601611600565b80840191505092915050565b60006110f9601683611583565b91507f50726f6475637420646f6573206e6f74206578697374000000000000000000006000830152602082019050919050565b6000611139602983611583565b91507f426964207072696365206d75737420626520686967686572207468616e206c6f60008301527f77657220626f756e6400000000000000000000000000000000000000000000006020830152604082019050919050565b600061119f602983611583565b91507f426964207072696365206d75737420626520686967686572207468616e20637560008301527f7272656e742062696400000000000000000000000000000000000000000000006020830152604082019050919050565b6000611205601483611583565b91507f41756374696f6e2074696d6520656c61707365640000000000000000000000006000830152602082019050919050565b60608201600082015161124e6000850182610f98565b5060208201516112616020850182611332565b5060408201516112746040850182611332565b50505050565b600061014083016000830151611293600086018261102b565b50602083015184820360208601526112ab8282611049565b915050604083015184820360408601526112c58282611049565b91505060608301516112da6060860182611332565b5060808301516112ed6080860182611332565b5060a083015161130060a0860182611332565b5060c083015161131360c0860182611238565b5060e083015161132761012086018261101c565b508091505092915050565b61133b816115e7565b82525050565b61134a816115e7565b82525050565b61136161135c826115e7565b611633565b82525050565b600061137382866110bb565b915061137f82856110bb565b915061138b8284611350565b602082019150819050949350505050565b600060208201905081810360008301526113b68184610fa7565b905092915050565b60006040820190506113d3600083018561103a565b6113e06020830184611341565b9392505050565b600060808201905081810360008301526114018187611082565b905081810360208301526114158186611082565b90506114246040830185611341565b6114316060830184611341565b95945050505050565b60006020820190508181036000830152611453816110ec565b9050919050565b600060208201905081810360008301526114738161112c565b9050919050565b6000602082019050818103600083015261149381611192565b9050919050565b600060208201905081810360008301526114b3816111f8565b9050919050565b60006020820190506114cf6000830184611341565b92915050565b6000604051905081810181811067ffffffffffffffff821117156114f857600080fd5b8060405250919050565b600067ffffffffffffffff82111561151957600080fd5b601f19601f8301169050602081019050919050565b6000819050602082019050919050565b600081519050919050565b600081519050919050565b6000602082019050919050565b600082825260208201905092915050565b600082825260208201905092915050565b600082825260208201905092915050565b600081905092915050565b60006115aa826115c7565b9050919050565b60008115159050919050565b6000819050919050565b600073ffffffffffffffffffffffffffffffffffffffff82169050919050565b6000819050919050565b82818337600083830152505050565b60005b8381101561161e578082015181840152602081019050611603565b8381111561162d576000848401525b50505050565b6000819050919050565b6000601f19601f8301169050919050565b611657816115bd565b811461166257600080fd5b50565b61166e816115e7565b811461167957600080fd5b5056fea26469706673582212206102f0df9e7a84e9ab85a54585dbd624964c7a3a53db230c040a554f331307e164736f6c63430007000033",
  "source": "// SPDX-License-Identifier: UNLICENSED\r\npragma solidity ^0.7.0;\r\npragma experimental ABIEncoderV2;\r\nimport \"./Buyers.sol\";\r\nimport \"./Sellers.sol\";\r\n\r\ncontract Products is Buyers,Sellers { //TODO: import new holder contract (contains Seller and Buyer)\r\n\r\n    mapping(bytes32 => Product) activeProducts;\r\n    bytes32[] activeProductIds;\r\n    mapping(address => Product[]) private sellerToProduct;\r\n    uint numOfProducts;\r\n\r\n    function addProduct(string memory name, string memory description, uint lowerBound, uint deadline) public {\r\n        bytes32 productID = keccak256(abi.encodePacked(name, description, deadline));\r\n        Bid memory emptyBid = Bid(address(0), 0, 0);\r\n        Product memory product = Product(productID, name, description, lowerBound, deadline, 0, emptyBid, true);\r\n        activeProducts[productID] = product;\r\n        sellerToProduct[msg.sender][sellerToProduct[msg.sender].length] = product;\r\n        activeProductIds[numOfProducts] = productID;\r\n        numOfProducts++;\r\n    }\r\n\r\n    function getProductDetailsById(bytes32 id) public view returns \r\n        (string memory _name, string memory _description, uint _lowerBound, uint _deadline) \r\n    {\r\n        Product memory product = activeProducts[id];\r\n        _name = product.name;\r\n        _description = product.description;\r\n        _lowerBound = product.lowerBound;\r\n        _deadline = product.deadline;\r\n    }\r\n\r\n    modifier isValidBid(bytes32 productId, uint price) {\r\n        Product storage currentProduct = activeProducts[productId];\r\n        require(currentProduct.isReal, \"Product does not exist\");\r\n        require(block.timestamp < currentProduct.deadline, \"Auction time elapsed\");\r\n        require(price > currentProduct.highestBid.bidPrice, \"Bid price must be higher than current bid\");\r\n        require(price >= currentProduct.lowerBound, \"Bid price must be higher than lower bound\");\r\n        _;\r\n    }\r\n\r\n    function placeBid(bytes32 productId, uint price) public isValidBid(productId, price) {\r\n        Product storage currentProduct = activeProducts[productId];\r\n        \r\n        Bid memory newBid = Bid({\r\n            bidder: msg.sender,\r\n            bidPrice: price,\r\n            bidTime: block.timestamp\r\n        });\r\n\r\n        currentProduct.highestBid = newBid;\r\n        currentProduct.noOfBids += 1;\r\n\r\n        emit BidPlacedEvent(newBid.bidder, productId, price); \r\n    }\r\n    \r\n    modifier onlySellers() {\r\n        require(sellerToProduct[msg.sender].length > 0 );\r\n        _;\r\n    }\r\n\r\n    function viewAllActiveProducts() onlySellers public view returns(Product[] memory)  { //add modifier Seller               \r\n         Product[] memory currAll = sellerToProduct[msg.sender] ;\r\n         Product[] memory currActive;\r\n\r\n         uint index = 0;\r\n         for(uint i = 0 ; i<currAll.length; i++) {\r\n            if(activeProducts[currAll[i].id].isReal){\r\n               currActive[index] = currAll[i];\r\n               index += 1;\r\n            }\r\n         }\r\n         return currActive;\r\n     } \r\n\r\n\r\n    function highestBid(bytes32 productId) public view returns(uint) { \r\n         return activeProducts[productId].highestBid.bidPrice;\r\n    }   \r\n    \r\n}\r\n",
  "sourcePath": "C:/Users/leahr/BlockchainAuction/backend/contracts/Products.sol",
  "compiler": {
    "name": "solc",
    "version": "0.7.0+commit.9e61f92b.Emscripten.clang"
  },
  "schemaVersion": "3.0.20",
  "updatedAt": "2020-12-17T18:36:02.431Z",
  "devdoc": {
    "kind": "dev",
    "methods": {},
    "version": 1
  },
  "userdoc": {
    "kind": "user",
    "methods": {},
    "version": 1
  }
}